:020000040000FA
:1000000018060020C1000000851F0000ED1500004B
:10001000FFFFFFFFFFFFFFFFFFFFFFFFFFFFFFFFF0
:10002000FFFFFFFFFFFFFFFFFFFFFFFFD11F0000EC
:10003000FFFFFFFFFFFFFFFF871F000033010000EE
:1000400035010000350100003501000035010000D8
:1000500035010000350100003501000035010000C8
:1000600035010000350100003501000035010000B8
:1000700035010000350100003501000035010000A8
:1000800035010000550C000035010000FD15000091
:100090000D1600003501000035010000D1230000DD
:1000A0006D240000B5230000BF23000035010000CF
:1000B0003501000035010000350100003501000068
:1000C0001D4880471D4880471D4800471D4801695D
:1000D000002908D14169002905D18169002902D18F
:1000E000C169002909D01848C1680901090D002912
:1000F0000ED005290CD006290AD0BFF34F8F134824
:100100001349016013491248C860BFF34F8FFEE7DF
:100110000E4801680E48884200D070470E480F49CB
:1001200001600A480E4901607047FEE7FEE7FEE7FE
:10013000FEE7FEE7FEE70000CD0000003D210000E5
:100140006501000000030840800108400000002015
:100150000400FA0500ED00E0008108400100000005
:10016000000000000348854600F0C8FB0048004737
:10017000752700001806002030B50B460146002008
:100180002022012409E00D46D5409D4205D31D469D
:100190009540491B2546954040191546521E002D95
:1001A000F1DC30BD03460B439B0703D009E008C9CF
:1001B000121F08C0042AFAD203E00B780370401C17
:1001C000491C521EF9D27047D2B201E00270401CA5
:1001D000491EFBD270470022F6E710B513460A46C7
:1001E00004461946FFF7F0FF204610BDF8B5024659
:1001F0004A40D40F42004B0052085B089A4202D298
:100200000246084611464A0023D0C30D4A00DDB21B
:10021000120EAD1A202D35DA49020126490AF605DB
:100220008A19002C00D0524220214F1B1146B940A0
:100230002A411018C20D9A4221D0002C17D0012D4E
:1002400008DCDA05801AD20F8019D207DBB200F081
:10025000A7FAF8BDDA05801A012340001B06C01872
:1002600080185A428018CA0F1043490007E0490815
:10027000C2071143DA05801A80194008801800F07F
:1002800087FAF8BD61000122511A001BF7E701222D
:10029000D2075140AAE70122D2075040A6E7024602
:1002A00070B54A40D30FDB0740002DD04A002AD05A
:1002B000010E140E000212020919400A520A841893
:1002C000E50104465443000A120A2E045043A419BF
:1002D0004219200CC543AA18120C0125AD03521C6B
:1002E000521912047F39240400D0521C104301D447
:1002F0004000491EC2B20C06C0092018401C40082C
:10030000802A02D003E0002070BD40084000002990
:1003100000DA0020184370BD70B502464A40D50F80
:1003200040004A00ED0740085208002814D0002A77
:1003300012D0C40DD30D41020120C0055202490A5A
:10034000520AE41A091812187D34914201D3641C30
:1003500000E04900002C01DA002070BD002391422A
:1003600001D3891A0343400849000028F7D1002926
:100370000AD0914202D10121C90705E0914201D280
:10038000012101E00121C943E005C018401900F036
:10039000FFF970BDF0B507460846584087B0C00F5A
:1003A000049048000E46590040084908BC1A88418C
:1003B00005D2384631461E4617460B4602465800BF
:1003C000400810434CD0300D039040055900400DBB
:1003D000490D0590401A0290402872DA1803012155
:1003E000000B09050843019004980092002805D0ED
:1003F00001995242002088410092019002984021C8
:100400000A1A0199009800F0A0F905460C466B46BF
:1004100007CB00F0AAF9C0197141039A0E0D002311
:10042000D71756401A467A40164344D0049A002AF9
:100430002DD0029A012A039A15DC1205C01A9141A7
:1004400001263605001C7141D20F059ED20700938C
:10045000019202962A46234600F0E8F907B0F0BD63
:1004600038463146FAE71605224A0F46B218C01A36
:10047000B74101210905001C4F4100187F41114679
:1004800018187941E20F10436D19644113E0E20737
:100490006D0815436408C2071443039A0126120528
:1004A000C01A91413605001C7141CE074008304307
:1004B0004908C01851412A46234600F0AAF9CDE761
:1004C000FFE7049801224000C117121A00238B4154
:1004D00004983146C417381AA141EEE730B401241C
:1004E000E407634030BC55E730B40124E4076140C1
:1004F00030BC4FE70000E0FFF0B51FB488B00B99A7
:100500000998002448400999C00F490049080991F9
:10051000C0070B990090490049080B910999089868
:10052000A64608431CD00B990A98084318D009988E
:1005300001244000420D4800410D099824050003A4
:10054000000B204309900B980003000B20430B90F5
:1005500050181C494018002201901446104605E02E
:10056000002001460DB0F0BD032801DA034600E08B
:1005700003239C46C11A0AAE0AE05F0008ADED5B9A
:100580004F00F75B7D430027AA187C41491C5B1E86
:100590006145F2DD410004AB5A522104120C0A43BA
:1005A000240C401C0828DFDB01980290009970465B
:1005B00001910090059B049A0799069800F036F97E
:1005C000D0E700000DFCFFFFF0B50C465C4085B0A5
:1005D000E40FE40703944C00002664085900944695
:1005E000490802460296224321D062460A431ED0A1
:1005F0006200570D4A000E032303550D01240246E5
:100600002C492405781B1B0B360B4018234326432B
:10061000614600901C46501AB44103D30098401C18
:10062000009002E0921800985B41002803DA002055
:10063000014605B0F0BD00200121090507468646A8
:1006400011E064461D46141BB54106D36546521B96
:10065000B341744607430C43A646CD0740084908FA
:10066000284392185B4105460D43EAD110461843D2
:1006700013D06046194650407140084306D060468A
:10068000101AB34106D20122002306E00022012302
:10069000DB0702E00122D2435310009874460105A3
:1006A000381C6141029C039D0019694100F0B1F8BA
:1006B000BFE70000FD0300000122D207002800DB95
:1006C000101A002900DB511A814201D8012070471D
:1006D00000207047C217C10F504010B54018CA071C
:1006E0009623002100F05CF810BDC20FD207400035
:1006F00040080BD0C10D0723DB01C91840020905D2
:10070000400A1143C20840071143704700200146C8
:100710007047CB0FDB07490010B5490802460A4372
:1007200007D00A0D07240903E401090B121B002A54
:1007300001DC002010BDC900440F0C43C100E018CB
:10074000D205801800F024F810BD10B5202A04DB73
:100750000146203A9140002010BD914020239C1A70
:100760000346E3401943904010BD10B5202A06DB34
:10077000CB170846203A1041C1170B4306E00B4641
:100780001341D0402024A21A91400843194610BDBD
:10079000002904DA401C490001D14008400070479C
:1007A00070B40024050C05D11024000402D10029E6
:1007B00021D01124050E01D100020834050F01D10A
:1007C0000001241D850F01D18000A41C002801DB3D
:1007D0004000641C002908D020252E1B0D46F54042
:1007E000A14000D001212943084301061B1B000A38
:1007F000DB1D02D5002070BC7047DB05181880187F
:100800000029F8DA401C4900F5D170BC40084000CE
:10081000704710B5002B08DA0024401C6141921883
:100820005B411A4301D14008400010BDF0B51FB430
:1008300082B005460C0003D0084601F0AFFF02E08D
:1008400001F0ACFF20300246009021462846FFF719
:100850007CFF049B059A04460F4618431143084346
:1008600014D0184610431BD0009840210A1A18468D
:10087000059900F055F805460E46009A059904982A
:10088000FFF763FF084305D0012004E02046394606
:1008900007B0F0BD0020C11705430E432C4337437A
:1008A00000990E986305401A7905E40A00220C436A
:1008B000FD0A0A3002D500200146E9E701051019BA
:1008C00069410C9C0D9D00196941FFF7A2FFDFE70C
:1008D00070B54B005B0803430BD04B005C0D00264A
:1008E00033466542B341D417AD1AA34102DB002061
:1008F000014670BD12053018514170BD064C0125EE
:10090000064E05E0E36807CC2B430C3C98471034B7
:10091000B442F7D3FFF72AFC982B0000B82B000055
:1009200010B5202A04DB0846203AD040002110BD33
:100930000B46D340D0402024A21A914008431946C8
:1009400010BD0000FCB501920A46C000134BC1184F
:10095000002320E0FF20984010421AD0009101248B
:100960009C4000200746064605460BE01146F9402C
:10097000214205D0019981400D430F2181400E4352
:10098000001D7F1C082FF1D100990868B04328434F
:1009900008600833091D082BDCDDFCBD2020024067
:1009A000F0B58DB000F00AFC9D4D2861284614304A
:1009B000294618312A461C3200F0BCFB284620305C
:1009C000294624312A46283200F0D6FB6F69384682
:1009D000FFF780FE0446EC62A8690B90FFF77AFEF1
:1009E0000A902863E8690C90FFF774FE06466E6370
:1009F000286A0490FFF76EFE0990A863686A059064
:100A0000FFF768FE0690E863A86A0790FFF762FEAA
:100A100008902864834D0397AF4207DA2046FFF71A
:100A200064FE0022834BFFF767FD0EE07E492046FF
:100A3000FFF7DCFBFFF759FE00247C4B2246FFF753
:100A40005BFD7B4B2246FFF7A5FCFFF762FE0446E9
:100A50000B98A84207DA0A98FFF747FE0022754B69
:100A6000FFF74AFD10E070490A98FFF7BFFBFFF758
:100A70003CFE2F4600256D4B2A46FFF73DFD6C4B93
:100A80002A463D46FFF786FC0290019166493046B2
:100A9000FFF7ACFB0A950C99A94200DB06467120D2
:100AA000C1053046FFF7FBFB014600912046FFF7EA
:100AB00033FCFFF71AFE01F015FF00245E4F2246BB
:100AC0003B46FFF719FD5D4D5D4E2A463346FFF765
:100AD0007BFDFFF71EFE014651480C910160029814
:100AE0000199FFF716FE0099FFF716FCFFF7FDFDD1
:100AF00001F0F8FE22463B46FFF7FEFC2A4633464D
:100B0000FFF762FDFFF705FE05460120C4072046FA
:100B10002946FFF7BCFB03990A9A914200DC28465C
:100B20003F4EB0600B980A998842099F03DD0C98EC
:100B300060400C9030600C1D0498A0420ADA3846E0
:100B4000FFF7D3FD3F4A404BFFF73EFDFFF7E1FDC6
:100B50000746B7634720010638460B91FFF7ACFD07
:100B600000280DD139483946FFF791FBFFF7BDFD4D
:100B7000344A374BFFF728FDFFF7CBFD0746B76335
:100B800006980599A1420ADAFFF7AFFD2D4A2E4BD0
:100B9000FFF71AFDFFF7BDFD3546F06300E035466F
:100BA00006460B99FFF788FD00280CD127483146EF
:100BB000FFF76DFBFFF799FD224A254BFFF704FD78
:100BC000FFF7A7FDE8630798A0420BDA0898FFF744
:100BD0008CFD1C4A1C4BFFF7F7FCFFF79AFD0446FF
:100BE0002C6400E0089C20460B99FFF765FD002867
:100BF0000CD116482146FFF74AFBFFF776FD114A54
:100C0000134BFFF7E1FCFFF784FD28640C9839468D
:100C100001F030F8E96BA86801F0CCF80DB0F0BD38
:100C200000000020FC7F0000000040C7000010BF53
:100C30000000F03F0000103F008066401F85EB5130
:100C4000B81E094066666666666630C000FF7F476C
:100C50006666304010B50A4C204600F02BF801289B
:100C60000CD1204600F014F806480168064A1160CD
:100C700006490B685360002202600A6010BDC0463E
:100C80000060074080E006406000002080C0024015
:100C90004168012291434160BFF34F8F704710B507
:100CA0000268042413462343A243002900D11346BB
:100CB000036010BD416801200840704710B502680C
:100CC000012413462343A243002900D113460360A5
:100CD00010BDC160704781607047000070B501248D
:100CE0006004A10300252A46234600F023FCAB48FC
:100CF00000681921C74A00F0C9FD20462146224656
:100D0000FFF720FEC44E304621462A4600F026FC5E
:100D1000304621462A4600F033FC30462146224622
:100D200000F025FC70BDC046F0B58BB016460F46EE
:100D3000044609A86BA10722FFF734FA04A814217E
:100D4000FFF749FA032538462840C11E4A1E914143
:100D5000012303942C4202D0012900D0BFE00C24CF
:100D600027403A460C3A00210291891A51415940D4
:100D7000039A1207920F02D0012900D0AFE0032896
:100D800019D102200090019301F0ECFB09A8057134
:100D900046713146D031C9438171072100F0E0F836
:100DA000009801F0DFFB04A8062100F09FF8019BEA
:100DB000002800D093E00C2F19D1022738461D4699
:100DC00001F0D0FB09A804714671C1787118D831BF
:100DD000C9438171072100F0C3F8384601F0C2FB16
:100DE00004A8062100F082F82B46002877D10123C1
:100DF0000398184219D0022630461C4601F0B2FB77
:100E000009A8047102994171C178CD31C94381713A
:100E1000072100F0A5F8304601F0A4FB04A8062144
:100E200000F064F82346002859D10398800719D5AB
:100E3000022630461C4601F095FB09A8067102996E
:100E40004171C178CE31C9438171072100F088F822
:100E5000304601F087FB04A8062100F047F823463E
:100E600000283CD1039840071AD5022630461C467C
:100E700001F078FB09A80421017102994171C17840
:100E8000D031C9438171072100F06AF8304601F082
:100E900069FB04A8062100F029F8234600281ED18A
:100EA000039800071AD5022528461C4601F05AFB74
:100EB00009A80821017102994171C178D431C9434F
:100EC0008171072100F04CF8284601F04BFB04A883
:100ED000062100F00BF82346002800D1029B18469B
:100EE0000BB0F0BD5573040100000000F0B589B0EF
:100EF0000D46044602AE301D1821FFF76CF919208B
:100F0000029005940195069577480790002777761B
:100F1000224D2868314600F057FD286800F07CFB20
:100F20000028FAD0012001F01DFB0198411E38462F
:100F300002E08018C0B27F1CFBB2E25C9942F8DC90
:100F4000FF214840801A411E884109B0F0BDC046CB
:100F500001460120022902D8104801600020704794
:100F600010B588B0002207920692059204921923C8
:100F70000193029003915C48069001A94A76074CC0
:100F8000206800F087FD206800F046FB0028FAD0BA
:100F90000A2001F0E7FA08B010BDC046D4020020D4
:100FA000F8B5A948006868211A4A00F06FFC0124CE
:100FB0006004A10300252A46234600F0BBFA26035D
:100FC000204631462246FFF7BDFC134F38463146D6
:100FD0002A4600F0C3FA384631462A4600F0D0FAD5
:100FE00038463146224600F0C2FA284600F016F88C
:100FF000204600F04FF9284600F028F9284600F076
:101000007BF9372006212A4600F0DEF9204600F061
:10101000A3F9F8BDA086010000200B4080B5002890
:1010200005D0012808D16B200621012202E06B20A7
:101030000621002200F0C8F980BD000070B501252E
:10104000284600F0F9F8FFF7ABFF00F0EDF80320B9
:1010500000F052F90024204600F0F8F8042000F0D7
:1010600083F9022000F02EF96A200F4E2146B04786
:1010700023202146B04737208021B047752000F05B
:10108000ADF868280ED16B20012100F091F96C2099
:10109000214600F08DF9042000F066F9022000F0EE
:1010A00011F92546284670BDB113000070B588B00F
:1010B0000D46064601AC201D1821FFF78CF868206C
:1010C000019004960595B848069000206076B74DCB
:1010D0002868214600F078FC286800F09DFA002876
:1010E000FAD008B070BDC046307500007CB514461B
:1010F0000D4601A908702720C043C049024605E0FB
:101100000346273353430026CE54521E1346323330
:10111000F6D101A80126314600F02CF9304601F045
:1011200033FA28462146FFF7C1FF304601F02CFA7A
:101130007CBDC046F8B514460D460646AF4F39464D
:1011400028313B200622FFF7D1FF2920385C2821D7
:10115000795C0902014331602B20385C2A21795CDB
:101160000902014329602D20385C2C21795C090299
:1011700001432160F2BDC046F8B514460D4606464F
:101180009E4F3946283143200622FFF7AFFF292022
:10119000385C2821795C0902014331602B20385CDE
:1011A0002A21795C0902014329602D20385C2C2119
:1011B000795C090201432160F2BDC04610B58F4C35
:1011C0002146283141200222FFF790FF2920215C8F
:1011D0002820205C0002084310BDC046BCB501A910
:1011E00008702720C043854D014605E0024627329E
:1011F0004A430023AB54491E0A463232F6D101A8B5
:101200000124214600F0B6F8204601F0BDF9284639
:1012100028302146FFF74AFF204601F0B5F9282083
:10122000285C02B0B0BDC04680B56B20072101220A
:1012300000F0CAF880BD000001460120022902D852
:101240005A48016000207047D8020020B0B504461B
:101250000B48047001229103032C02D8A10009A3BA
:101260005958016222401C250321284600F0ACF8A1
:10127000022222400421284600F0A6F8B0BDC04654
:10128000C00000200040000000200000001000000E
:1012900000080000F8B504460126224632406B25BE
:1012A0000021144B28469847022722463A402846F8
:1012B0003146104B984704222240284639460D4BB0
:1012C0009847F8BDF8B504460126224632401A2553
:1012D0000021084B28469847022722463A402846D4
:1012E0003146044B98470422224028463946014B98
:1012F0009847F8BDC9130000B0B504463F48447094
:101300001149032C0CD8A20001A3D2589746C0461D
:10131000211300002B1300002513000029130000E7
:101320000C4902E00A4900E00849416201222240DA
:101330001B250321284600F047F802222240042101
:10134000284600F041F8B0BD0000834233338341AA
:10135000333303420000034380B5012202403720AB
:10136000072100F031F880BD80B50146192000F05A
:101370001FF880BD10B588B0002207920692059232
:10138000049268230193029003910748069001A9F3
:101390004A76064C206800F07DFB206800F03CF99E
:1013A0000028FAD008B010BD30750000D802002027
:1013B000E0B501AA1070517002211046FFF7DAFF64
:1013C000012001F0E1F88CBDF8B515460E46044643
:1013D0000A49283101273A46FFF788FEB7402820FE
:1013E0000649095C38460843B943002D00D1084638
:1013F000C1B22046FFF7DCFFF8BDC046C0000020A8
:1014000010B50368446800229C420AD0C268D25CCE
:101410000A70591C83680022994200D00A46026073
:101420000122104610BD70B544680668631C8568CB
:101430000022AB4202D1002E02D109E0B34207D014
:10144000C26811550021AB4200D01946416001220B
:10145000104670BD41680068091A0020401A4841D2
:101460007047000070B50446124D6E6900F024F814
:101470002060072131404A1E2049062A0AD8C0466A
:101480007A441279520097440C03030505070A00B9
:10149000084606E0002004E00120C00301E07D20B2
:1014A0000002606029680522052900D31146C84062
:1014B000A06070BD20800840B0B50F490868CA69B7
:1014C0004C6801235D0200202C4214D08869040F6F
:1014D0001C400A48E040002A0DDB8A6989694B0DEF
:1014E00003211940D30D1F221A401023002A00D0D7
:1014F00013465843C840B0BD0080084000127A002F
:10150000BFB50446E0081C21014009480D5801A858
:10151000FFF7A8FF1F212140032088402840C84032
:10152000811C2E2C00D001460398C84004B0B0BDE9
:1015300038800840F0B5084C25688543A6688E437E
:10154000E7689743002B02D017430E4305432560FD
:10155000A660E760F0BDC04624800840002A02D0A3
:1015600002680A4301E002688A4302607047002A69
:1015700002D042680A4301E042688A4342607047F1
:1015800010B583688B43C4688C43012A03D0002ABA
:1015900002D10B4300E00C438360C46010BDF8B57A
:1015A0000E46412001020025012428462A462346F2
:1015B000FFF7C0FF2102062728463A46FFF7C2F987
:1015C000A10228463A46FFF7BDF9A707384631463B
:1015D00000F06EFF38462946224600F0B7FF384635
:1015E0002146224600F0B2FFF8BD00000248016823
:1015F0000029FCD07047C0467801002080B501204A
:1016000000F03CF8022000F039F880BD80B50020E1
:1016100000F034F880BD000070B544254543E44E29
:101620007019026B0421012A25D0426B0521012A81
:1016300021D003462833826A0121002A1BD0C16BC6
:10164000002908DDC26A2C300021012A13D10021B3
:10165000016003210FE000221A60705901214C0241
:10166000214600F09FFA7059214600F024FA705983
:1016700000F03AFA0221C8B270BDC046FEB502467B
:1016800044265643CA4FB859B919002800D1DFE0A3
:10169000019202910C2100F08EFA0124A502284249
:1016A00007D00120029908630868294600F003FA70
:1016B000FEBD2102C2050CD50120029C20632068DA
:1016C00000F0F9F9206800F081FA206800F07EFA55
:1016D000FEBDE102020506D50120029A50631068A2
:1016E00000F0E9F9FEBD6102644A90421ED0220476
:1016F000904272D0624A904200D183E0614A9042A7
:1017000014D019221204904226D01D2213049842AC
:1017100022D0520490424BD05B4A904248D088423B
:10172000029A00D094E00120D062D8E7029D286898
:1017300000F0C1F9286800F0D7F9286C002809D01A
:10174000019800F035FF022800D181E028680021CF
:1017500000F0B3F9EC62FEBD029E34461434354607
:10176000103530697169891E884203D130680021C3
:1017700000F096F9306800F029FAB1692A688854B7
:10178000501C286021688842019C61D1306800F0BB
:10179000ABF90020B062306C002859D0204600F030
:1017A00007FF022854D03068002100F086F9FEBD02
:1017B000029B1A4608329968186800292BD0BC1978
:1017C00061681546E268515C00F003FA6068401CED
:1017D00060602868401E2860FEBD029D2C461034C3
:1017E00028696969891E884203D12868002100F0B0
:1017F00057F9286800F0EAF9A96922688854501C52
:101800002060FEBD02994869022821D308680121A1
:1018100000F046F9FEBD6104002200921C4600F073
:10182000C1F92020205C032813D002281AD0009E82
:101830000128029C019D0BD1206800F055F9A66299
:10184000206C002804D0284600F0B2FE022812D1F5
:10185000FEBD029C206800F047F9B8194562818BF3
:10186000206804E0B8194562818B029800682A4616
:1018700000F0F2F9FEBD206896E7C04600023A008B
:10188000040018000002180004003A00F0B589B006
:1018900005460124E703E604C148444B022D23D04A
:1018A000012D40D0002D5DD179480491BB490160E4
:1018B000414900200592024603932346FFF73AFE72
:1018C000022610210297072730463A46FFF73AF8DA
:1018D000202130463A46029FFFF734F80499059AD2
:1018E0002005039B18603DE0049188210592684A19
:1018F000505030490020024603932346FFF71AFE5A
:10190000A10302240196072620463246FFF71AF863
:10191000204639463246FFF715F80499059A039890
:10192000019B03601EE0049159494864214900204D
:101930000592024603932346FFF7FCFD210301961F
:1019400002260297072730463A46FEF7FBFF61035F
:1019500030463A46029FFEF7F5FF0499059A039830
:10196000019B036006AC002020706070A070218194
:101970000792124800681249FEF7FEFBE070442609
:101980006E43434DA859214600F0BAF8A8590D49B5
:101990000124224600F006F9A859214600F098F8E3
:1019A000A859394600F018F909B0F0BD00E100E08F
:1019B000DC02002001400000024000005400002032
:1019C00000127A000507010080B500220A7600F0B7
:1019D00001F880BDFEB50C46442545432C48461908
:1019E00000227260A068B0606068F06032612069B7
:1019F0007061E068B0612068F061207E2021705441
:101A00000120B062F2623263029272637D20C100F3
:101A10006069FEF7B1FBF06337463C3731461C3155
:101A2000F06B002813DD0091607E3064019518484A
:101A300040590125294600F040F83068E90400F0DB
:101A400058F8012804D138680128F6DAFEBDFEE70F
:101A500030686F02394600F02EF8306839462A4661
:101A600000F0A0F8AA02207E401EC0B2022805D8CD
:101A7000306869042A4600F095F8029A01980449F2
:101A80000818426200980188306800F0E5F8FEBD51
:101A9000DC02002080B501220A76FFF79BFF80BDA3
:101AA00010B50268012413462343A243002900D144
:101AB0001346036010BDC160704710B5026808246A
:101AC00013462343A243002900D11346036010BDEF
:101AD00010B50122540303681A462243A343002988
:101AE00000D11A46026010BD016802220A4302605A
:101AF0007047C2680A400120002A00D11046704792
:101B0000FEB50D46044620688521884329780143A7
:101B100068780843A978014321602889A0600220E1
:101B200000261E498C4204D01D488442334604D10D
:101B30000020C0B2FFF7E4FC0346032081032068C5
:101B400008400121CA039042029606D089038842C8
:101B500005D0002804D1062602E0092600E0082668
:101B6000092001935843696814274F433946FEF70B
:101B700003FB801BED78401B002800DC02982061ED
:101B80000B20019948433946FEF7F6FA801B401BAB
:101B9000002800DC02986061FEBDC0460090044051
:101BA00000800440002A02D042680A4301E04268F3
:101BB0008A434260704781B00022009200900098F2
:101BC000401800900098006801B070478069C0B26A
:101BD0007047816170470000F0B5026943690324D2
:101BE000A403066826400127FD031A4CAE420CD020
:101BF000BF03BE4211D0002E24D1661CB14215D1C4
:101C0000022A1FD39B1E921E1CE0BD03A94217D0BF
:101C1000002917D1DB1CD21C14E000290DD0A942E9
:101C200010D1002A0ED05B1E521E0BE0A94209D132
:101C3000022A07D3DB1ED21E04E09B1C921C01E08B
:101C40005B1C521C02614361026822400A4302602D
:101C5000F0BDC046FF3F0000B0B50B46046802254A
:101C60002C42FBD10124A4022143002A00D11946B1
:101C7000C161B0BDF0B58BB0049107909D48406C38
:101C80009D49FEF7B3FA05469C4988690990CF69DA
:101C90003946FEF7ABFA9A4C2146FEF700FB0146A7
:101CA0002846FEF7F4FA064606963F20010630461F
:101CB000FEF79CFA054630462946FEF72DFB024604
:101CC00002928C48416801918C490E680396806CA1
:101CD0000A904A602146FEF7E2FA0146059138462D
:101CE000FEF7D5FA08902946FEF716FB074683480B
:101CF000876004983146FEF7CAFA2146FEF7CFFA0C
:101D000001460198FEF772FA0446079D28462146CF
:101D1000FEF7BDFA0146029E3046FEF7C0FA0146C4
:101D20002046FEF763FA0146724841602846FEF7F6
:101D3000AEFA01463846FEF7B2FA01460398FEF7BE
:101D400055FA6E490860069C20463146FEF7A7FA10
:101D500001462046FEF79BFA04466648446409980B
:101D60000599FEF794FA054630462946FEF797FA9C
:101D700001462846FEF78BFA05466048856106460F
:101D800038462146FEF78BFA01460898FEF77FFA9F
:101D9000F06138462946FEF782FA044659490A9806
:101DA000FEF724FA2146FEF772FA524988640BB016
:101DB000F0BDC046F0B58BB0049107904D48C06CA3
:101DC0004D49FEF713FA05464C49086A09904F6AD7
:101DD0003946FEF70BFA4A4C2146FEF760FA0146F7
:101DE0002846FEF754FA064606963F20010630467E
:101DF000FEF7FCF9054630462946FEF78DFA024605
:101E000002923C48C16801913C49CE680396006D3E
:101E10000A900A612146FEF742FA014605913846CA
:101E2000FEF735FA08902946FEF776FA074633485A
:101E3000476104983146FEF72AFA2146FEF72FFA49
:101E400001460198FEF7D2F90446079D284621462F
:101E5000FEF71DFA0146029E3046FEF720FA0146C3
:101E60002046FEF7C3F901462248C1602846FEF726
:101E70000EFA01463846FEF712FA01460398FEF7BD
:101E8000B5F91E49C860069C20463146FEF707FAA0
:101E900001462046FEF7FBF904461648C46409983B
:101EA0000599FEF7F4F9054630462946FEF7F7F99D
:101EB00001462846FEF7EBF905461048056206463E
:101EC00038462146FEF7EBF901460898FEF7DFF9A0
:101ED000706238462946FEF7E2F9044609490A9835
:101EE000FEF784F92146FEF7D2F9024908650BB0E6
:101EF000F0BDC046000000206F12833A5001002060
:101F00000AD7A33BA69B443B70B5012422040026BC
:101F1000304631462346FFF70DFB0E4D284631462D
:101F2000FEF7D9FE0C480068C821FEF725F90146E6
:101F30002846FEF7CEFE2846FEF7AAFE2846214692
:101F4000FEF7BCFE60040549086028462146FEF7FE
:101F5000A6FE70BD006007405400002000E100E0D4
:101F600010B500242046FEF7F3FF0146FF200129AB
:101F700007D0FEF7B3FE0F2021462246FEF7D4FE1F
:101F8000204610BD70477047F8B5E1204002009030
:101F900001200002694688800020C88008810390E3
:101FA000FFF7FDFA8FBD0000F0B5084C25688543AA
:101FB00066688E43A7689743002B02D017430E43F1
:101FC000054325606660A760F0BDC04604810840F7
:101FD00070470000F0B58DB0012420040290A103E9
:101FE000019127023A4604972346FFF7A3FA0025FA
:101FF00010210391042628463246FEF7A3FC0298DE
:1020000001993A462346FFF795FA20272846394694
:102010003246FEF797FC484E304603992246FFF7BA
:10202000A6FA304639462246FFF7A1FAB34F3846A2
:1020300000F034F909AE304600F0B0F90320039007
:10204000C002308075800498B081357138463146C1
:1020500000F084F905AE304600F00BF934700F2023
:1020600030733846314600F0EBF8039801023846E9
:102070002A462B4600F054F980203D503846214630
:1020800000F000F90DB0F0BDF0B58BB001242704CD
:10209000A6033846314622462346FFF74BFA002571
:1020A0000422029228463146FEF74CFC384631465F
:1020B00022462346FFF73EFAA10201912846029AE2
:1020C000FEF740FC1C4F384631462246FFF74FFAD8
:1020D000384601992246FFF74AFAAF4E304600F0E3
:1020E000DDF807AF384600F059F909950320029052
:1020F000C00238807D802002B8813D71304639466B
:1021000000F02CF903AF384600F0B3F83C700F2014
:1021100038737A48394600F093F802980102304645
:102120002A462B4600F0FCF88020355030462146E8
:1021300000F0A8F80BB0F0BD00000B40F0B586B081
:102140003B481021059101603A49C86A4022039238
:102150001043C862384800682728FBD10327B8021B
:102160000A6A82430A620122D0020B6803430B60B1
:10217000486808263042FBD008680724A04338434B
:102180000860086B20400328FBD12C4B1868A04343
:1021900010430093186000200290C86155020B683C
:1021A000AB430B600497FF43CB59100201900343EC
:1021B000CB510B68B3430B60CB592B43CB519302EC
:1021C0000E681E430E604B6804263342FBD0CB6A78
:1021D000039EB343CB620F23DB054B6113074E69AC
:1021E0001E434E61CB59019EB343CB510B682B4329
:1021F0000B60486802231842FBD0E043009D2B6827
:102200000340049E33432B60029BCB610B68034069
:1022100013430B60086B20400128FBD12868059907
:1022200008432860100329680143296006B0F0BD07
:102230000C8108400480084008A1064000020840C4
:102240007CB50C460546636862782178207B6E4633
:102250003060284600F0C4F9207880002818A16872
:10226000026A03239B049A430262026A0A430262DF
:102270007CBD002101704170012212044260816026
:102280000173704710B50269012413462343A2432A
:10229000002900D11346036110BD0000B0B5012133
:1022A0000B020022154CA04203D03B4B984201D1B7
:1022B0000B461A4601210C07114B124DA84204D0BF
:1022C000114B984204D14C07104B1340234300E0BC
:1022D00013460C030E4A0F4DA84204D00E4A9042FA
:1022E00004D14C030D4A1A40224300E01A46002054
:1022F00001230146FFF758FEB0BDC04600E006408E
:10230000FFFFFFEF0040034000400740FFFFFFDFFB
:10231000FFEFFFFF0010034000100740FFDFFFFF4B
:1023200070B5072424024568A5430D43066A446A34
:10233000416D4560084D3540012636043543056240
:1023400003252D04AC43344344629B001343052210
:1023500091431943416570BDFFFFFC7F10B50A88AA
:102360008823C2504A888423C2500322120403687F
:1023700093430360012212060368934303608A6853
:10238000036813430360044A904202D10B798C2402
:1023900013518989816710BD00C00240002181600E
:1023A000034A02804180012212028281017170473A
:1023B000FFFF000080B5042000F02EF980BD80B53D
:1023C000012000F029F9022000F026F980BD00006C
:1023D000F8B5012084072021204600F05AF8012892
:1023E0003DD12021204600F046F8204600F0ABF811
:1023F000C2B21B49242A02D100240C8000E00C88C0
:10240000611C174D2980174B18550A2A22D11878BC
:1024100024281FD118794D281CD15879432819D167
:102420008DB29624601B0027952D394600D80146B1
:102430000D4E7019FDF7CFFE0A4930462A46FDF7CA
:10244000B1FE012030550648078006482146FDF7B9
:10245000C2FEF8BD88B2962801D396202880F8BD28
:10246000140400203C0200207C01002080B50320E1
:1024700000F0D2F880BD02690A4002617047102264
:102480001823012900D01A468168D1400F20084046
:10249000704702690A400120002A00D110467047A7
:1024A000C2680A400120002A00D11046704700008F
:1024B000B0B50D460446606818490140E8880843F5
:1024C000A988014328890843E968014361601A210A
:1024D0000020134A944211D0124A944210D0124A5A
:1024E00094420FD0114A94420FD011498C420BD024
:1024F000012189078C420BD1182106E00A2104E052
:102500001C2102E0082100E01E21C8B2FEF7F8FFFE
:102510002968FDF731FE6062B0BDC046FCE0FFFFF8
:102520000020044000100040002000400000044053
:1025300000100440002A02D0C2680A4301E0C268C9
:102540008A43C2607047006880B2704710238B4096
:10255000002A02D04168194301E041689943416073
:1025600070470000E0B501907D2081010F480068B0
:10257000FDF702FE0199414301910198411E01912D
:102580000028FAD18CBDC046E0B501907D208101C4
:1025900006480068FDF7F0FD01994143019101985B
:1025A000411E01910028FAD18CBDC0465400002084
:1025B000B0B5442141430948441825463C352068BC
:1025C0000121C904FFF795FA0021012803D12868E9
:1025D00002210028F3DCC8B2B0BDC046DC020020F6
:1025E000F0B54D000124AC40066DA6430665059E7E
:1025F0001E43890041180B6A064F1F403743436D45
:102600000F62AA40A34313434365016D2143016553
:10261000F0BDC04600FFFCFFFEB50446E600524D8B
:10262000A859002800D19EE00221FFF732FF0028C0
:1026300000D0FEE70196A8598021FFF72AFF002865
:1026400033D0200149490D182846FEF703FF002822
:1026500007D045480199405802210022FFF76AFF40
:1026600023E00095404D019FE8190079012814D11D
:102670000620C543009F6D1C17D002AE3846314678
:10268000FEF7BEFEE0003849085831780160384650
:10269000FEF7E0FE0028EED007E002AE00983146DB
:1026A000FEF7AEFEE859317801602F4D019FE859E1
:1026B000EA1911790029009232D04021FFF7E9FE92
:1026C00000282E4614D0F0594021FFF7D4FE2001F7
:1026D00027490D1806E0E00030580068C1B22846CE
:1026E000FEF7A1FEF0590221FFF7C9FE0028F2D142
:1026F000F0592021FFF7CDFE002820D020011C49F1
:102700000D1806E0E00030580068C1B22846FEF718
:102710008AFEF0590221FFF7B2FE0028F2D10EE046
:102720002021FFF7B6FE00282E4608D020011049D0
:102730000818E10071580968C9B2FEF774FEF05933
:102740000421FFF7ADFE00280DD0F059012421022D
:10275000FFF79FFE002806D0F05904210022FFF762
:10276000E9FE00984471FEBDEC03002070000020DB
:102770000001002080B5FFF707FCFEF7AFFAFFF776
:10278000EFFBFFF727FCFFF77FFCFFF7BDFBFEF732
:1027900055FC0028FBD1FEF703F9FCE72021020CD1
:1027A00001D010211046020A01D010460839020952
:1027B00001D01046091F820801D01046891E420828
:1027C00001D0881E7047081A704700004900CA02ED
:1027D0000243100000D004204A0D01D00122104312
:1027E000044A490D914201D102210843012800D138
:1027F00005207047FF070000F8B504464F1EC800CB
:102800000838211815461E46086849683A460623C6
:102810009A4310D02A463346FDF76EFE3A46D20060
:10282000083AA3181A687F1E5B68FDF7B3FD0622FD
:102830003B469343EED1022F23D0042F11D0062F15
:102840002FD12A463346FDF757FEE36AA26AFDF709
:10285000A1FD2A463346FDF74FFE636A226AFDF763
:1028600099FD2A463346FDF747FEE369A269FDF765
:1028700091FD2A463346FDF73FFE63692269FDF765
:1028800089FD2A463346FDF737FEE368A268FDF767
:1028900081FD2A463346FDF72FFE63682268FDF767
:1028A00079FDF8BD10B50122FEF712F810BD000049
:1028B000034A10B500201107FEF70AF810BD00000A
:1028C00001FDFFFF02E008C8121F08C1002AFAD16B
:1028D00070477047002001E001C1121F002AFBD1A0
:1028E00070470000F0B589B004460D4648000691D7
:1028F00072494008884215DB7149884203DC8842EE
:1029000007D1002C05D020462946FFF7CBFF09B0A0
:10291000F0BD6C48002D02DD6B4909B0F0BD6B497C
:1029200009B0F0BD6A49884211DA6A4988420BDA77
:1029300020462946FFF74AFF042801D1FFF7B8FFD8
:102940002046294609B0F0BD0026F6435DE06D0043
:1029500061496D08884232DA6049884219DA0026F6
:10296000012332469B0720462946FDF713FD074603
:102970000191012220462946FDF7AAFF0022584B6B
:10298000FDF7ACFD3A46019BFDF71EFE04460D46E1
:102990003BE001260022524B20462946FDF7FAFC77
:1029A0000746009100224E4B20462946FDF796FD32
:1029B0003A46009BFDF708FE04460D4625E04949CE
:1029C000884219DA02260022474B20462946FDF7A5
:1029D00093FD0022424BFDF7DDFC074602910022E9
:1029E000414B20462946FDF779FD3A46029BFDF70B
:1029F000EBFD04460D4608E0032622462B46002048
:102A00003A49FDF7E1FD04460D4622462B461046A5
:102A10001946FDF771FD07460B4602460191FDF789
:102A20006BFD0246029032480B4603910621784422
:102A3000FFF7E2FE3A46019BFDF75EFD00902D4850
:102A4000019105217844039B029AFFF7D5FE039B71
:102A5000029AFDF751FD02460B4601990098002E9F
:102A60000BDAFDF797FC22462B46FDF745FD224683
:102A70002B46FDF739FD09B0F0BDFDF78BFC224672
:102A80002B46FDF739FD1C4AF6007A4493191A6863
:102A90005B68FDF723FD22462B46FDF71FFD174A15
:102AA0007A4493191A685B68FDF71EFD069A002A9E
:102AB000E1DA0122D207514009B0F0BD0000104414
:102AC0000000F07F182D4454FB21F93FFB21F9BF92
:102AD0000000DC3F0000203E0000F33F0000E63F26
:102AE0000000F03F008003400000F83F0000F0BF0E
:102AF00036010000F8000000920000005C000000B9
:102B00004FBB610567ACDD3F182D4454FB21E93F05
:102B10009BF681D20B73EF3F182D4454FB21F93FF4
:102B2000E2652F227F2B7A3C075C143326A6813C7A
:102B3000BDCBF07A8807703C075C143326A6913C25
:102B4000C4EB98999999C9BF711623FEC671BCBF91
:102B50006D9A74AFF2B0B3BF9AFDDE522DDEADBFF9
:102B60002F6C6A2C44B4A2BF0D5555555555D53F11
:102B7000FF8300922449C23F6E204CC5CD45B73F2C
:102B8000513DD0A0660DB13FEB0D76244B7BA93FA4
:102B900011DA22E33AAD903FC02B00000000002084
:102BA00058000000C4280000182C0000600000201D
:102BB000B8050000D428000000000000000000005C
:102BC0000000000000000000000000000000000005
:102BD00000000000000000000000000000000000F5
:102BE00000000000000000000000000000000000E5
:102BF00000000000000000000000000000000000D5
:102C0000000000000000803F0000803F0000803F87
:082C10000000803F00879303E0
:04000005000000C136
:00000001FF
