:020000040000FA
:10000000A0050020C1000000AD1B0000F914000095
:10001000FFFFFFFFFFFFFFFFFFFFFFFFFFFFFFFFF0
:10002000FFFFFFFFFFFFFFFFFFFFFFFF311D00008E
:10003000FFFFFFFFFFFFFFFF111D00003301000066
:1000400035010000350100003501000035010000D8
:1000500035010000350100003501000035010000C8
:1000600035010000350100003501000035010000B8
:1000700035010000350100003501000035010000A8
:1000800035010000110A00003501000009150000CB
:10009000191500003501000035010000551E000053
:1000A000F11E0000391E0000431E00003501000053
:1000B0003501000035010000350100003501000068
:1000C0001D4880471D4880471D4800471D4801695D
:1000D000002908D14169002905D18169002902D18F
:1000E000C169002909D01848C1680901090D002912
:1000F0000ED005290CD006290AD0BFF34F8F134824
:100100001349016013491248C860BFF34F8FFEE7DF
:100110000E4801680E48884200D070470E480F49CB
:1001200001600A480E4901607047FEE7FEE7FEE7FE
:10013000FEE7FEE7FEE70000CD000000351D0000F1
:100140006501000000030840800108400000002015
:100150000400FA0500ED00E0008108400100000005
:10016000000000000348854600F000FC00480047FE
:10017000C1210000A005002030B50B46014600203B
:100180002022012409E00D46D5409D4205D31D469D
:100190009540491B2546954040191546521E002D95
:1001A000F1DC30BD03460B439B0703D009E008C9CF
:1001B000121F08C0042AFAD203E00B780370401C17
:1001C000491C521EF9D27047D2B201E00270401CA5
:1001D000491EFBD270470022F6E710B513460A46C7
:1001E00004461946FFF7F0FF204610BDF8B5024659
:1001F0004A40D40F42004B0052085B089A4202D298
:100200000246084611464A0023D0C30D4A00DDB21B
:10021000120EAD1A202D35DA49020126490AF605DB
:100220008A19002C00D0524220214F1B1146B940A0
:100230002A411018C20D9A4221D0002C17D0012D4E
:1002400008DCDA05801AD20F8019D207DBB200F081
:10025000DEFAF8BDDA05801A012340001B06C0183B
:1002600080185A428018CA0F1043490007E0490815
:10027000C2071143DA05801A80194008801800F07F
:10028000BEFAF8BD61000122511A001BF7E70122F6
:10029000D2075140AAE70122D2075040A6E7024602
:1002A00070B54A40D30FDB0740002DD04A002AD05A
:1002B000010E140E000212020919400A520A841893
:1002C000E50104465443000A120A2E045043A419BF
:1002D0004219200CC543AA18120C0125AD03521C6B
:1002E000521912047F39240400D0521C104301D447
:1002F0004000491EC2B20C06C0092018401C40082C
:10030000802A02D003E0002070BD40084000002990
:1003100000DA0020184370BD70B502464A40D50F80
:1003200040004A00ED0740085208002814D0002A77
:1003300012D0C40DD30D41020120C0055202490A5A
:10034000520AE41A091812187D34914201D3641C30
:1003500000E04900002C01DA002070BD002391422A
:1003600001D3891A0343400849000028F7D1002926
:100370000AD0914202D10121C90705E0914201D280
:10038000012101E00121C943E005C018401900F036
:1003900036FA70BDF0B507460846584087B0C00F22
:1003A000049048000E46590040084908BC1A88418C
:1003B00005D2384631461E4617460B4602465800BF
:1003C000400810434CD0300D039040055900400DBB
:1003D000490D0590401A0290402872DA1803012155
:1003E000000B09050843019004980092002805D0ED
:1003F00001995242002088410092019002984021C8
:100400000A1A0199009800F0D7F905460C466B4688
:1004100007CB00F0E1F9C0197141039A0E0D0023DA
:10042000D71756401A467A40164344D0049A002AF9
:100430002DD0029A012A039A15DC1205C01A9141A7
:1004400001263605001C7141D20F059ED20700938C
:10045000019202962A46234600F01FFA07B0F0BD2B
:1004600038463146FAE71605224A0F46B218C01A36
:10047000B74101210905001C4F4100187F41114679
:1004800018187941E20F10436D19644113E0E20737
:100490006D0815436408C2071443039A0126120528
:1004A000C01A91413605001C7141CE074008304307
:1004B0004908C01851412A46234600F0E1F9CDE72A
:1004C000FFE7049801224000C117121A00238B4154
:1004D00004983146C417381AA141EEE730B401241C
:1004E000E407634030BC55E730B40124E4076140C1
:1004F00030BC4FE70000E0FFF0B51FB488B00B99A7
:100500000998002448400999C00F490049080991F9
:10051000C0070B990090490049080B910999089868
:10052000A64608431CD00B990A98084318D009988E
:1005300001244000420D4800410D099824050003A4
:10054000000B204309900B980003000B20430B90F5
:1005500050181C494018002201901446104605E02E
:10056000002001460DB0F0BD032801DA034600E08B
:1005700003239C46C11A0AAE0AE05F0008ADED5B9A
:100580004F00F75B7D430027AA187C41491C5B1E86
:100590006145F2DD410004AB5A522104120C0A43BA
:1005A000240C401C0828DFDB01980290009970465B
:1005B00001910090059B049A0799069800F06DF947
:1005C000D0E700000DFCFFFFF0B50C465C4085B0A5
:1005D000E40FE40703944C00002664085900944695
:1005E000490802460296224321D062460A431ED0A1
:1005F0006200570D4A000E032303550D01240246E5
:100600002C492405781B1B0B360B4018234326432B
:10061000614600901C46501AB44103D30098401C18
:10062000009002E0921800985B41002803DA002055
:10063000014605B0F0BD00200121090507468646A8
:1006400011E064461D46141BB54106D36546521B96
:10065000B341744607430C43A646CD0740084908FA
:10066000284392185B4105460D43EAD110461843D2
:1006700013D06046194650407140084306D060468A
:10068000101AB34106D20122002306E00022012302
:10069000DB0702E00122D2435310009874460105A3
:1006A000381C6141029C039D0019694100F0E8F883
:1006B000BFE70000FD03000010B5002904DB0C4675
:1006C0000121C9074042A141002B04DB1C46012344
:1006D000DB075242A341101A8B4101D2012010BD09
:1006E000002010BD10B5002904DB0C460121C9070C
:1006F0004042A141002B04DB1C460123DB07524290
:10070000A341801A994101D2012010BD002010BDE3
:10071000C217C10F504010B54018CA0796230021D8
:1007200000F075F810BDC20F410040020123400ADD
:10073000DB05D207090EC0187F2901DA00207047B7
:10074000962903DC9623591AC84001E0963988405F
:10075000002AF4D040427047C20FD2074000400840
:100760000BD0C10D0723DB01C91840020905400A5F
:100770001143C208400711437047002001467047EB
:10078000CB0FDB07490010B5490802460A4307D0E2
:100790000A0D07240903E401090B121B002A01DCDE
:1007A000002010BDC900440F0C43C100E018D20561
:1007B000801800F024F810BD10B5202A04DB014693
:1007C000203A9140002010BD914020239C1A0346FE
:1007D000E3401943904010BD10B5202A06DBCB172B
:1007E0000846203A1041C1170B4306E00B4613415F
:1007F000D0402024A21A91400843194610BD002978
:1008000004DA401C490001D140084000704770B430
:100810000024050C05D11024000402D1002921D0A8
:100820001124050E01D100020834050F01D1000189
:10083000241D850F01D18000A41C002801DB40008D
:10084000641C002908D020252E1B0D46F540A14030
:1008500000D001212943084301061B1B000ADB1DB0
:1008600002D5002070BC7047DB05181880180029DD
:10087000F8DA401C4900F5D170BC400840007047D0
:1008800010B5002B08DA0024401C614192185B412E
:100890001A4301D14008400010BDF0B51FB482B02A
:1008A00005460C0003D0084601F0D8FC02E001F038
:1008B000D5FC20300246009021462846FFF77CFFF9
:1008C000049B059A04460F4618431143084314D06D
:1008D000184610431BD0009840210A1A1846059963
:1008E00000F056F805460E46009A05990498FFF761
:1008F00063FF084305D0012004E02046394607B0D5
:10090000F0BD0020C11705430E432C433743009927
:100910000E986305401A7905E40A00220C43FD0A8B
:100920000A3002D500200146E9E7010510196941A6
:100930000C9C0D9D00196941FFF7A2FFDFE770B520
:100940004B005B0803430BD04B005C0D0026334685
:100950006542B341D417AD1AA34102DB0020014622
:1009600070BD12053018514170BD0000064C0125C4
:10097000064E05E0E36807CC2B430C3C9847103447
:10098000B442F7D3FFF7F2FB002800002028000054
:1009900010B5202A04DB0846203AD040002110BDC3
:1009A0000B46D340D0402024A21A91400843194658
:1009B00010BD0000FCB501920A46C000134BC118DF
:1009C000002320E0FF20984010421AD0009101241B
:1009D0009C4000200746064605460BE01146F940BC
:1009E000214205D0019981400D430F2181400E43E2
:1009F000001D7F1C082FF1D100990868B0432843DF
:100A000008600833091D082BDCDDFCBD20200240F6
:100A100010B50A4C204600F01EF801280DD12046E2
:100A200000F012F8064800687F21CA0501218B07F3
:100A3000014601F0BDF80349086010BD00600740A1
:100A400058020020B8010020416801229143416012
:100A5000BFF34F8F70474168012008407047000086
:100A600070B501246004A10300252A46234600F046
:100A7000E7FCD14800681921ED4A00F08DFE2046C0
:100A800021462246FFF796FFEA4E304621462A4687
:100A900000F0EAFC304621462A4600F0F7FC3046DA
:100AA0002146224600F0E9FC70BDC046F0B58BB08F
:100AB00016460F46044609A86BA10722FFF772FBF2
:100AC00004A81421FFF787FB032538462840C11EE0
:100AD0004A1E9141012303942C4202D0012900D0E7
:100AE000BFE00C2427403A460C3A00210291891AB3
:100AF00051415940039A1207920F02D0012900D0A8
:100B0000AFE0032819D102200090019301F06CFAA4
:100B100009A8057146713146D031C9438171072159
:100B200000F02CF9009801F05FFA04A8062100F00B
:100B3000EBF8019B002800D093E00C2F19D102277D
:100B400038461D4601F050FA09A804714671C17873
:100B50007118D831C9438171072100F00FF9384667
:100B600001F042FA04A8062100F0CEF82B46002836
:100B700077D101230398184219D0022630461C462B
:100B800001F032FA09A8047102994171C178CD319E
:100B9000C9438171072100F0F1F8304601F024FAD1
:100BA00004A8062100F0B0F82346002859D1039884
:100BB000800719D5022630461C4601F015FA09A80F
:100BC000067102994171C178CE31C9438171072103
:100BD00000F0D4F8304601F007FA04A8062100F02E
:100BE00093F8234600283CD1039840071AD50226E3
:100BF00030461C4601F0F8F909A804210171029958
:100C00004171C178D031C9438171072100F0B6F834
:100C1000304601F0E9F904A8062100F075F82346F2
:100C200000281ED1039800071AD5022528461C4625
:100C300001F0DAF909A80821017102994171C1781E
:100C4000D431C9438171072100F098F8284601F09A
:100C5000CBF904A8062100F057F82346002800D15C
:100C6000029B18460BB0F0BD557304010000000054
:100C7000F0B589B00C46064607AF0420B87020488E
:100C8000388002A814210190FFF7A5FA0225284612
:100C900001F0AAF9FD703E717420C043113041B2D9
:100CA0008C4200DC044661B26420642900DB044607
:100CB0007C713019CE30C043B8710721384600F03E
:100CC0005DF8284601F090F90621019800F01CF823
:100CD000014601208B22002910D102A9C9780229DE
:100CE0000CD1711ECBB20020072B07D8DA40D207F7
:100CF00004D049B28900034A51580C7009B0F0BDC4
:100D000055730000E0270000F0B589B00D46044699
:100D100002AE301D1821FFF75EFA192002900594EB
:100D200001950695A648079000277776224D2868FA
:100D3000314600F0CFFD286800F0F4FB0028FAD01F
:100D4000012001F051F90198411E384602E0801857
:100D5000C0B27F1CFBB2E25C9942F8DCFF21484044
:100D6000801A411E884109B0F0BDC04601460120ED
:100D7000022902D8104801600020704710B588B0E1
:100D80000022079206920592049219230193029081
:100D900003918B48069001A94A76074C206800F021
:100DA000FFFD206800F0BEFB0028FAD00A2001F009
:100DB0001BF908B010BDC0465C020020F8B58148A0
:100DC000006868211A4A00F0E7FC01246004A103CE
:100DD00000252A46234600F033FB260320463146F1
:100DE0002246FFF7E7FD134F384631462A4600F00A
:100DF0003BFB384631462A4600F048FB3846314630
:100E0000224600F03AFB284600F016F8204600F093
:100E1000C5F9284600F09EF9284600F0F1F9372080
:100E200006212A4600F056FA204600F01BFAF8BDCB
:100E3000A086010000200B4080B5002805D00128C5
:100E400008D16B200621012202E06B20062100223E
:100E500000F040FA80BD000070B500F049F9CA4DBD
:100E600068600A240B4E2046B047284608302946C1
:100E70000C312A46103200F049F82046B047284687
:100E80001430294618311C352A4600F09DF82046BA
:100E9000B04770BD0D20000070B5FFF78FFF00F068
:100EA00051F9032000F0ACF90024204600F052F97B
:100EB000042000F0DFF9022000F088F96A202146C2
:100EC00000F0FCF92320214600F0F8F9752000F02D
:100ED000E9F801460120682914D16B2001250A4E4A
:100EE0002946B0476C202146B047042000F0C2F9E3
:100EF000022000F06BF937208021B04738202946C6
:100F0000B047204670BDC046BD120000FEB502923B
:100F100001910746CE4D294628313B20062200F09C
:100F20009DF82920285C2821695C0902014308B248
:100F3000FFF7EEFB0446286AFFF7EAFB0646204669
:100F40003146FFF7E9F938602B20285C2A21695CDB
:100F50000902014308B2FFF7DBFB3146FFF7DCF97A
:100F6000019908602D20285C2C21695C090201434D
:100F700008B2FFF7CDFB3146FFF7CEF902990860C2
:100F8000FEBDC04670B588B00D46064601AC201DBA
:100F90001821FFF720F96820019004960595C548AF
:100FA000069000206076C44D2868214600F092FC2F
:100FB000286800F0B7FA0028FAD008B070BDC04623
:100FC000307500000C000020F8B514460D460646AA
:100FD000CD4F394628314320062200F03FF8292022
:100FE000385C2821795C0902014308B2FFF790FBC5
:100FF000796AFFF791F930602B20385C2A21795CFF
:101000000902014308B2FFF783FB796AFFF784F90D
:1010100028602D20385C2C21795C0902014308B23C
:10102000FFF776FB796AFFF777F92060F8BDC046D5
:1010300010B5B54C214628314720022200F00EF8A9
:101040002920205C2821615C0902014308B2FFF7D6
:101050005FFB616AFFF760F910BDC0467CB51446BE
:101060000D4601A908702720C043A749024605E0A4
:101070000346273353430026CE54521E13463233C1
:10108000F6D101A80126314600F0FAF8304600F00A
:10109000BDFF28462146FFF775FF304600F0B6FF3A
:1010A0007CBDC046BCB501A908702720C043964D41
:1010B000014605E0024627324A430023AB54491E4D
:1010C0000A463232F6D101A80124214600F0D8F8B0
:1010D000204600F09BFF284628302146FFF752FFAC
:1010E000204600F093FF2820285C02B0B0BDC04627
:1010F00010B5854C2146283141200222FFF7AEFF72
:101100002920205C2821615C0C0204432046FFF763
:10111000FFFA002C0AD00749FFF7FEF8FFF71CFB87
:10112000054A064BFFF736F9FFF72AFB0449FFF79C
:10113000F3F810BD0000AA43A4703D0AD743424013
:101140000000204180B56B200721012200F0C2F889
:1011500080BD0000B0B504460B4804700122910325
:10116000032C02D8A10009A35958016222401C2572
:101170000321284600F0AEF802222240042128462E
:1011800000F0A8F8B0BDC04660000020004000009C
:10119000002000000010000000080000F8B5044620
:1011A0000126224632406B250021144B28469847E1
:1011B000022722463A4028463146104B98470422DF
:1011C0002240284639460D4B9847F8BDF8B50446ED
:1011D0000126224632401A250021084B284698470E
:1011E000022722463A4028463146044B98470422BB
:1011F000224028463946014B9847F8BDD5120000D9
:10120000B0B50446404844701249032C0CD8A200E3
:1012100001A3D2589746C04629120000331200009D
:101220002D120000311200000D4902E00B4900E0D0
:1012300009494162012222401B250321284600F072
:1012400049F8022222400421284600F043F8B0BDAC
:101250006000002000008342333383413333034274
:101260000000034380B5012202403720072100F02F
:1012700031F880BD80B50146192000F01FF880BD0F
:1012800010B588B000220792069205920492682356
:101290000193029003910748069001A94A76064CF3
:1012A000206800F07DFB206800F03CF90028FAD0AF
:1012B00008B010BD307500000C000020E0B501AA98
:1012C0001070517002211046FFF7DAFF012000F084
:1012D0009DFE8CBDF8B515460E4604460A492831D8
:1012E00001273A46FFF7BAFEB74028200649095CB5
:1012F00038460843B943002D00D10846C1B2204604
:10130000FFF7DCFFF8BDC0466000002010B50368A1
:10131000446800229C420AD0C268D25C0A70591C00
:1013200083680022994200D00A46026001221046DA
:1013300010BD70B544680668631C85680022AB4226
:1013400002D1002E02D109E0B34207D0C268115584
:101350000021AB4200D0194641600122104670BD09
:1013600041680068091A0020401A4841704700008F
:1013700070B50446124D6E6900F024F82060072114
:1013800031404A1E2049062A0AD8C0467A441279BA
:10139000520097440C03030505070A00084606E0BF
:1013A000002004E00120C00301E07D200002606015
:1013B00029680522052900D31146C840A06070BDE8
:1013C00020800840B0B50F490868CA694C680123FD
:1013D0005D0200202C4214D08869040F1C400A488A
:1013E000E040002A0DDB8A6989694B0D0321194011
:1013F000D30D1F221A401023002A00D01346584351
:10140000C840B0BD0080084000127A00BFB5044655
:10141000E0081C21014009480D5801A8FFF7A8FF6A
:101420001F212140032088402840C840811C2E2CC9
:1014300000D001460398C84004B0B0BD38800840D1
:10144000F0B5084C25688543A6688E43E768974346
:10145000002B02D017430E4305432560A660E760CA
:10146000F0BDC04624800840002A02D002680A432A
:1014700001E002688A4302607047002A02D0426895
:101480000A4301E042688A434260704710B58368AE
:101490008B43C4688C43012A03D0002A02D10B433A
:1014A00000E00C438360C46010BDF8B50E464120D7
:1014B00001020025012428462A462346FFF7C0FFE3
:1014C0002102062728463A46FFF774FAA102284669
:1014D0003A46FFF76FFAA7073846314600F02AFD73
:1014E00038462946224600F073FD384621462246FA
:1014F00000F06EFDF8BD0000024801680029FCD034
:101500007047C046F000002080B5012000F03CF894
:10151000022000F039F880BD80B5002000F034F8DA
:1015200080BD000070B544254543E44E7019026B40
:101530000421012A25D0426B0521012A21D003462E
:101540002833826A0121002A1BD0C16B002908DDE3
:10155000C26A2C300021012A13D10021016003212D
:101560000FE000221A60705901214C02214600F060
:101570009FFA7059214600F024FA705900F03AFAA7
:101580000221C8B270BDC046FEB50246442656438D
:10159000CA4FB859B919002800D1DFE00192029171
:1015A0000C2100F08EFA0124A502284207D0012068
:1015B000029908630868294600F003FAFEBD21027B
:1015C000C2050CD50120029C2063206800F0F9F9C7
:1015D000206800F081FA206800F07EFAFEBDE1028A
:1015E000020506D50120029A5063106800F0E9F95F
:1015F000FEBD6102644A90421ED02204904272D025
:10160000624A904200D183E0614A904214D019228C
:101610001204904226D01D221304984222D0520474
:1016200090424BD05B4A904248D08842029A00D008
:1016300094E00120D062D8E7029D286800F0C1F94B
:10164000286800F0D7F9286C002809D0019800F02C
:10165000F1FC022800D181E02868002100F0B3F9F4
:10166000EC62FEBD029E34461434354610353069B6
:101670007169891E884203D13068002100F096F913
:10168000306800F029FAB1692A688854501C286033
:1016900021688842019C61D1306800F0ABF90020DC
:1016A000B062306C002859D0204600F0C3FC0228FC
:1016B00054D03068002100F086F9FEBD029B1A4626
:1016C00008329968186800292BD0BC196168154642
:1016D000E268515C00F003FA6068401C60602868B2
:1016E000401E2860FEBD029D2C46103428696969A1
:1016F000891E884203D12868002100F057F9286824
:1017000000F0EAF9A96922688854501C2060FEBDE7
:1017100002994869022821D30868012100F046F99E
:10172000FEBD6104002200921C4600F0C1F9202099
:10173000205C032813D002281AD0009E0128029CA6
:10174000019D0BD1206800F055F9A662206C00289D
:1017500004D0284600F06EFC022812D1FEBD029C87
:10176000206800F047F9B8194562818B206804E0D1
:10177000B8194562818B029800682A4600F0F2F998
:10178000FEBD206896E7C04600023A00040018003B
:101790000002180004003A00F0B589B005460124A3
:1017A000E703E604C148444B022D23D0012D40D06D
:1017B000002D5DD179480491BB4901604149002069
:1017C0000592024603932346FFF73AFE02261021B4
:1017D0000297072730463A46FFF7ECF820213046BB
:1017E0003A46029FFFF7E6F80499059A2005039B05
:1017F00018603DE0049188210592684A50503049B4
:101800000020024603932346FFF71AFEA103022499
:101810000196072620463246FFF7CCF82046394687
:101820003246FFF7C7F80499059A0398019B0360B5
:101830001EE004915949486421490020059202465E
:1018400003932346FFF7FCFD21030196022602972E
:10185000072730463A46FFF7ADF8610330463A466F
:10186000029FFFF7A7F80499059A0398019B03606C
:1018700006AC002020706070A07021810792124891
:1018800000681249FEF778FCE07044266E43434D31
:10189000A859214600F0BAF8A8590D49012422465A
:1018A00000F006F9A859214600F098F8A8593946E1
:1018B00000F018F909B0F0BD00E100E0600200207E
:1018C00001400000024000000800002000127A00E1
:1018D0000507010080B500220A7600F001F880BDFE
:1018E000FEB50C46442545432C484619002272603B
:1018F000A068B0606068F060326120697061E06883
:10190000B0612068F061207E202170540120B06217
:10191000F2623263029272637D20C1006069FEF759
:101920002BFCF06337463C3731461C31F06B002806
:1019300013DD0091607E30640195184840590125FF
:10194000294600F040F83068E90400F058F8012812
:1019500004D138680128F6DAFEBDFEE730686F0270
:10196000394600F02EF8306839462A4600F0A0F8D3
:10197000AA02207E401EC0B2022805D83068690441
:101980002A4600F095F8029A019804490818426224
:1019900000980188306800F0E5F8FEBD6002002084
:1019A00080B501220A76FFF79BFF80BD10B5026863
:1019B000012413462343A243002900D113460360A8
:1019C00010BDC160704710B5026808241346234358
:1019D000A243002900D11346036010BD10B50122B7
:1019E000540303681A462243A343002900D11A4630
:1019F000026010BD016802220A4302607047C2689B
:101A00000A400120002A00D110467047FEB50D465D
:101A10000446206885218843297801436878084373
:101A2000A978014321602889A060022000261E4970
:101A30008C4204D01D488442334604D10020C0B2F9
:101A4000FFF7E4FC034603208103206808400121DE
:101A5000CA039042029606D08903884205D0002826
:101A600004D1062602E0092600E008260920019399
:101A70005843696814274F433946FEF77DFB801BA6
:101A8000ED78401B002800DC029820610B200199B2
:101A900048433946FEF770FB801B401B002800DCE2
:101AA00002986061FEBDC046009004400080044082
:101AB000002A02D042680A4301E042688A43426039
:101AC000704781B00022009200900098401800906A
:101AD0000098006801B070478069C0B270478161AA
:101AE00070470000F0B5026943690324A403066847
:101AF00026400127FD031A4CAE420CD0BF03BE4264
:101B000011D0002E24D1661CB14215D1022A1FD358
:101B10009B1E921E1CE0BD03A94217D0002917D1BD
:101B2000DB1CD21C14E000290DD0A94210D1002AE0
:101B30000ED05B1E521E0BE0A94209D1022A07D328
:101B4000DB1ED21E04E09B1C921C01E05B1C521C9D
:101B500002614361026822400A430260F0BDC04650
:101B6000FF3F0000B0B50B46046802252C42FBD1B4
:101B70000124A4022143002A00D11946C161B0BD4D
:101B800010B500242046FFF7F1F80146FF20012997
:101B900007D0FEF765FF0F2021462246FEF786FF9D
:101BA000204610BD80B5FFF763F880BD7047000088
:101BB000F0B587B01D46164606910590FFF738FA36
:101BC000FEF7CAFD464A0292464B0393FEF794FC89
:101BD0000022454BFEF7F8FCFEF7D2FD07463046E3
:101BE000FEF7BAFD06460C462846FEF7B5FD02464E
:101BF0000B463046214600F0E7FC01900E46049764
:101C00003846FEF7A9FD394A394BFEF775FC044604
:101C10000D46384F7868FEF79FFD22462B46FEF7AB
:101C2000B9FBFEF7ADFD04467C6001983146FEF736
:101C3000A7FD2146FEF72BFB0190FEF78DFD044624
:101C40000F46029D2A46039BFEF74CFD06462A4B93
:101C5000204639462C462A46FEF79CFBFEF790FDAF
:101C6000002E00D101980390FEF776FD06460F4640
:101C7000224B2246FEF720FD0546214B30463946D1
:101C80002246FEF787FBFEF77BFD002D00D103986F
:101C9000184908600699059A8A181A490B68D218DB
:101CA0006425642A00DB2A466323DE43B24200DC5B
:101CB00032460A601449FEF7F2FA044613490498C2
:101CC000FEF7EDFA2146FEF791FAFEF72CFD6428A7
:101CD00000DB2846B04200DC304607B0F0BDC0460D
:101CE000182D4454FB210940008066407B14AE4708
:101CF000E17A74BF00000020FB2119C0FB2109C05C
:101D0000FB211940F40000200000FA4300002041AC
:101D10007047F8B5E12040020090012000026946BA
:101D200088800020C88008810390FFF7BEFB8FBD2C
:101D300070470000F0B586B03B4810210591016066
:101D40003A49C86A402203921043C8623848006882
:101D50002728FBD10327B8020A6A82430A620122BC
:101D6000D0020B6803430B60486808263042FBD062
:101D700008680724A04338430860086B2040032804
:101D8000FBD12C4B1868A04310430093186000202F
:101D90000290C86155020B68AB430B600497FF4388
:101DA000CB59100201900343CB510B68B3430B6036
:101DB000CB592B43CB5193020E681E430E604B68E8
:101DC00004263342FBD0CB6A039EB343CB620F237E
:101DD000DB054B6113074E691E434E61CB59019ED3
:101DE000B343CB510B682B430B6048680223184266
:101DF000FBD0E043009D2B680340049E33432B60DF
:101E0000029BCB610B68034013430B60086B2040BF
:101E10000128FBD128680599084328601003296828
:101E20000143296006B0F0BD0C81084004800840E1
:101E300008A106400002084080B5042000F012F915
:101E400080BD80B5012000F00DF9022000F00AF9F4
:101E500080BD0000F8B5012084072021204600F055
:101E60005AF801283DD12021204600F046F82046AE
:101E700000F0ABF8C2B21B49242A02D100240C8026
:101E800000E00C88611C174D2980174B18550A2A51
:101E900022D1187824281FD118794D281CD15879BF
:101EA000432819D18DB29624601B0027952D394601
:101EB00000D801460D4E7019FEF78DF90A493046DB
:101EC0002A46FEF76FF9012030550648078006487C
:101ED0002146FEF780F9F8BD88B2962801D39620F6
:101EE0002880F8BD98030020BC010020F8000020E5
:101EF00080B5032000F0B6F880BD02690A40026197
:101F0000704710221823012900D01A468168D14059
:101F10000F200840704702690A400120002A00D1C2
:101F200010467047C2680A400120002A00D11046BE
:101F300070470000B0B50D4604466068184901407E
:101F4000E8880843A988014328890843E9680143D0
:101F500061601A210020134A944211D0124A94421F
:101F600010D0124A94420FD0114A94420FD0114916
:101F70008C420BD0012189078C420BD1182106E03D
:101F80000A2104E01C2102E0082100E01E21C8B261
:101F9000FFF73CFA2968FEF7EFF86062B0BDC04673
:101FA000FCE0FFFF00200440001000400020004043
:101FB0000000044000100440002A02D0C2680A4316
:101FC00001E0C2688A43C2607047006880B270470F
:101FD00010238B40002A02D04168194301E0416878
:101FE0009943416070470000E0B501907D20810178
:101FF0000F480068FEF7C0F801994143019101982C
:10200000411E01910028FAD18CBDC046E0B5019077
:102010007D20810106480068FEF7AEF80199414332
:1020200001910198411E01910028FAD18CBDC04652
:1020300008000020B0B54421414309484418254612
:102040003C3520680121C904FFF7D9FC0021012893
:1020500003D1286802210028F3DCC8B2B0BDC04615
:1020600060020020FEB50446E600524DA859002843
:1020700000D19EE00221FFF74EFF002800D0FEE7CE
:102080000196A8598021FFF746FF002833D0200190
:1020900049490D182846FFF763F9002807D045483D
:1020A0000199405802210022FFF786FF23E00095A6
:1020B000404D019FE8190079012814D10620C5433D
:1020C000009F6D1C17D002AE38463146FFF71EF94F
:1020D000E00038490858317801603846FFF740F988
:1020E0000028EED007E002AE00983146FFF70EF967
:1020F000E859317801602F4D019FE859EA191179AB
:102100000029009232D04021FFF705FF00282E461B
:1021100014D0F0594021FFF7F0FE200127490D1897
:1021200006E0E00030580068C1B22846FFF701F928
:10213000F0590221FFF7E5FE0028F2D1F0592021E5
:10214000FFF7E9FE002820D020011C490D1806E009
:10215000E00030580068C1B22846FFF7EAF8F059AD
:102160000221FFF7CEFE0028F2D10EE02021FFF77A
:10217000D2FE00282E4608D0200110490818E100A0
:1021800071580968C9B2FFF7D4F8F0590421FFF774
:10219000C9FE00280DD0F05901242102FFF7BBFE33
:1021A000002806D0F05904210022FFF705FF00980F
:1021B0004471FEBD7003002010000020A00000202C
:1021C000FEB5FFF7A6FDFEF767FEFFF7D9FC012578
:1021D0006804A903002422462B46FFF731F9202684
:1021E000284631462A46FEF7E5FB1A4F3846314667
:1021F0002246FFF74BF9384631462246FFF734F9BD
:10220000384631462A46FFF738F9FEF725FE5021B9
:10221000114E2846B0474520C74302200290394658
:10222000B047042001904621B0470820009039466D
:10223000B0477D20C000FFF7D7FE28462146B047B3
:1022400002982146B04701982146B04700982146A0
:10225000B047FEE700200B40A51B00002021020C28
:1022600001D010211046020A01D010460839020997
:1022700001D01046091F820801D01046891E42086D
:1022800001D0881E7047081A704700004900CA0232
:102290000243100000D004204A0D01D00122104357
:1022A000044A490D914201D102210843012800D17D
:1022B00005207047FF070000F8B504464F1EC80010
:1022C0000838211815461E46086849683A4606230C
:1022D0009A4310D02A463346FEF70EF93A46D2000A
:1022E000083AA3181A687F1E5B68FEF753F80622A7
:1022F0003B469343EED1022F23D0042F11D0062F5B
:102300002FD12A463346FEF7F7F8E36AA26AFEF7B2
:1023100041F82A463346FEF7EFF8636A226AFEF771
:1023200039F82A463346FEF7E7F8E369A269FEF773
:1023300031F82A463346FEF7DFF863692269FEF773
:1023400029F82A463346FEF7D7F8E368A268FEF775
:1023500021F82A463346FEF7CFF863682268FEF775
:1023600019F8F8BD10B50122FEF7E9FA10BD10B555
:10237000FEF710F810BD0000034A10B50020110749
:10238000FEF7DDFA10BD000001FDFFFF02E008C806
:10239000121F08C1002AFAD170477047002001E0DF
:1023A00001C1121F002AFBD170470000F0B589B0AF
:1023B00004460D464800069172494008884215DBE4
:1023C0007149884203DC884207D1002C05D02046A1
:1023D0002946FFF7C7FF09B0F0BD6C48002D02DDAC
:1023E0006B4909B0F0BD6B4909B0F0BD6A4988423C
:1023F00011DA6A4988420BDA20462946FFF746FF80
:10240000042801D1FFF7B8FF2046294609B0F0BDE6
:102410000026F6435DE06D0061496D08884232DABE
:102420006049884219DA0026012332469B0720467C
:102430002946FDF7AFFF07460191012220462946B4
:10244000FEF77DFA0022584BFEF748F83A46019B0A
:10245000FEF7BAF804460D463BE001260022524B37
:1024600020462946FDF796FF0746009100224E4B75
:1024700020462946FEF732F83A46009BFEF7A4F8BC
:1024800004460D4625E04949884219DA0226002211
:10249000474B20462946FEF72FF80022424BFDF716
:1024A00079FF074602910022414B20462946FEF75C
:1024B00015F83A46029BFEF787F804460D4608E0F9
:1024C000032622462B4600203A49FEF77DF80446B3
:1024D0000D4622462B4610461946FEF70DF80746D4
:1024E0000B4602460191FEF707F802460290324879
:1024F0000B46039106217844FFF7DEFE3A46019B26
:10250000FDF7FAFF00902D48019105217844039BC7
:10251000029AFFF7D1FE039B029AFDF7EDFF0246F8
:102520000B4601990098002E0BDAFDF733FF224687
:102530002B46FDF7E1FF22462B46FDF7D5FF09B0FC
:10254000F0BDFDF727FF22462B46FDF7D5FF1C4ABD
:10255000F6007A4493191A685B68FDF7BFFF2246BC
:102560002B46FDF7BBFF174A7A4493191A685B683C
:10257000FDF7BAFF069A002AE1DA0122D20751409C
:1025800009B0F0BD000010440000F07F182D445445
:10259000FB21F93FFB21F9BF0000DC3F0000203E9A
:1025A0000000F33F0000E63F0000F03F00800340E2
:1025B0000000F83F0000F0BFAE0200007002000013
:1025C0000A020000D4010000F0B51FB4039B54427E
:1025D0005D00164626439C46F40F6D084B004E4E98
:1025E0005B082C438E46B44205D847420743FC0F94
:1025F0001C43B44204D96346FFF7B9FE05B0F0BDF1
:10260000464E6644164309D0CC0F6646B6170227DD
:102610003E40264304461C4304D00BE0FFF7C6FEB1
:1026200005B0F0BD002EFBD0012EF9D0022E32D025
:10263000032E34D014462C430BD0374CA54216D170
:10264000A3420AD1012189078D438B431946039583
:102650000DE0704600280FDB25E0314F7F44002E4F
:102660000ED0012E10D0022E15D0032E17D0A3426B
:102670001DD17046002816DA2A482B4905B0F0BD56
:102680007968386805B0F0BD01227968D2073868EA
:10269000514005B0F0BD2348244905B0F0BD2148A4
:1026A000234905B0F0BD1F48224905B0F0BD5B1BB2
:1026B0001B153C2B02DD1B481E490FE06446002C15
:1026C00005DA3C24E34202DA0020014606E0039BDF
:1026D000FDF77AFF49004908FFF768FE002EE4D0B5
:1026E000012E0BD0144A154B022E0CD0FDF7F6FE2E
:1026F0000C4A0E4BFDF7F2FE05B0F0BD0122D207E9
:10270000514005B0F0BDFDF7E9FE064A074BFDF765
:10271000EBFE05B0F0BD00000000F07F000010C02F
:1027200078010000182D4454FB21F9BFFB2109401A
:10273000FB2109C0FB21F93F075C143326A6A13C0D
:102740004FBB610567ACDD3F182D4454FB21E93FC9
:102750009BF681D20B73EF3F182D4454FB21F93FB8
:10276000E2652F227F2B7A3C075C143326A6813C3E
:10277000BDCBF07A8807703C075C143326A6913CE9
:10278000C4EB98999999C9BF711623FEC671BCBF55
:102790006D9A74AFF2B0B3BF9AFDDE522DDEADBFBD
:1027A0002F6C6A2C44B4A2BF0D5555555555D53FD5
:1027B000FF8300922449C23F6E204CC5CD45B73FF0
:1027C000513DD0A0660DB13FEB0D76244B7BA93F68
:1027D00011DA22E33AAD903F000000000000000053
:1027E0005302002054020020530200205502002012
:1027F0005302002053020020530200205602002002
:102800002028000000000020100000008C230000A1
:102810003028000010000020900500009C230000DC
:102820000000A040000000000087930301000000AA
:04000005000000C136
:00000001FF
