:020000040000FA
:1000000050050020C1000000B10700008904000075
:10001000FFFFFFFFFFFFFFFFFFFFFFFFFFFFFFFFF0
:10002000FFFFFFFFFFFFFFFFFFFFFFFFFD070000D8
:10003000FFFFFFFFFFFFFFFFB307000033010000DA
:1000400035010000350100003501000035010000D8
:1000500035010000350100003501000035010000C8
:1000600035010000350100003501000035010000B8
:1000700035010000350100003501000035010000A8
:10008000350100006D0200003501000099040000F8
:10009000A904000035010000350100004D0B0000EF
:1000A000E90B0000310B00003B0B000035010000A4
:1000B0003501000035010000350100003501000068
:1000C0001D4880471D4880471D4800471D4801695D
:1000D000002908D14169002905D18169002902D18F
:1000E000C169002909D01848C1680901090D002912
:1000F0000ED005290CD006290AD0BFF34F8F134824
:100100001349016013491248C860BFF34F8FFEE7DF
:100110000E4801680E48884200D070470E480F49CB
:1001200001600A480E4901607047FEE7FEE7FEE7FE
:10013000FEE7FEE7FEE70000CD000000AD0800008E
:100140006501000000030840800108400000002015
:100150000400FA0500ED00E0008108400100000005
:10016000000000000348854600F040F800480047C2
:10017000A50E00005005002030B50B4601460020BA
:100180002022012409E00D46D5409D4205D31D469D
:100190009540491B2546954040191546521E002D95
:1001A000F1DC30BD03460B439B0703D009E008C9CF
:1001B000121F08C0042AFAD203E00B780370401C17
:1001C000491C521EF9D27047D2B201E00270401CA5
:1001D000491EFBD270470022F6E710B513460A46C7
:1001E00004461946FFF7F0FF204610BD064C0125D6
:1001F000064E05E0E36807CC2B430C3C98471034CF
:10020000B442F7D3FFF7B2FFD40E0000F40E0000A3
:10021000FCB501920A46C000134BC118002320E030
:10022000FF20984010421AD0009101249C400020E9
:100230000746064605460BE01146F940214205D027
:10024000019981400D430F2181400E43001D7F1C09
:10025000082FF1D100990868B0432843086008339B
:10026000091D082BDCDDFCBD2020024010B5074C29
:10027000204600F023F8012806D1204600F00CF8B3
:10028000034800680349087010BDC046006007407D
:1002900080E00640B00000204168012291434160A7
:1002A000BFF34F8F704710B50268042413462343F1
:1002B000A243002900D11346036010BD416801200C
:1002C00008407047C16070478160704710B503688F
:1002D000446800229C420AD0C268D25C0A70591C51
:1002E00083680022994200D00A460260012210462B
:1002F00010BD70B544680668631C85680022AB4277
:1003000002D1002E02D109E0B34207D0C2681155D4
:100310000021AB4200D0194641600122104670BD59
:1003200041680068091A0020401A484170470000DF
:1003300070B50446124D6E6900F024F82060072164
:1003400031404A1E2049062A0AD8C0467A4412790A
:10035000520097440C03030505070A00084606E00F
:10036000002004E00120C00301E07D200002606065
:1003700029680522052900D31146C840A06070BD38
:1003800020800840B0B50F490868CA694C6801234D
:100390005D0200202C4214D08869040F1C400A48DA
:1003A000E040002A0DDB8A6989694B0D0321194061
:1003B000D30D1F221A401023002A00D013465843A1
:1003C000C840B0BD0080084000127A00BFB50446A6
:1003D000E0081C21014009480D5801A8FFF7A8FFBB
:1003E0001F212140032088402840C840811C2E2C1A
:1003F00000D001460398C84004B0B0BD3880084022
:10040000F0B5084C25688543A6688E43E768974396
:10041000002B02D017430E4305432560A660E7601A
:10042000F0BDC04624800840002A02D042680A433A
:1004300001E042688A4342607047F8B50E464120A9
:1004400001020025012428462A462346FFF7D8FF4B
:100450002102062728463A46FFF7DAFEA10228467F
:100460003A46FFF7D5FEA7073846314600F0DEFBD7
:1004700038462946224600F027FC384621462246C7
:1004800000F022FCF8BD0000024801680029FCD001
:100490007047C046B400002080B5012000F00AF883
:1004A000022000F007F880BD80B5002000F002F8BF
:1004B00080BD0000FEB50246442656437D4FB85924
:1004C000B919002800D1DFE0019202910C2100F05F
:1004D00028F90124A502284207D0012002990863C7
:1004E0000868294600F0FBF8FEBD2102C2050CD5C4
:1004F0000120029C2063206800F0F1F8206800F0E1
:100500001BF9206800F018F9FEBDE102020506D5CE
:100510000120029A5063106800F0E1F8FEBD61020C
:10052000654A90421ED02204904272D0634A9042A3
:1005300000D183E0624A904214D019221204904202
:1005400026D01D221304984222D0520490424BD050
:100550005C4A904248D08842029A00D094E0012040
:10056000D062D8E7029D286800F0B9F8286800F04A
:10057000C3F8286C002809D0019800F0B1FB0228CC
:1005800000D181E02868002100F0ABF8EC62FEBDEC
:10059000029E344614343546103530697169891E1F
:1005A000884203D13068002100F08EF8306800F0F6
:1005B000C3F8B1692A688854501C286021688842B1
:1005C000019C61D1306800F097F80020B062306C77
:1005D000002859D0204600F083FB022854D0306810
:1005E000002100F07EF8FEBD029B1A460832996891
:1005F000186800292BD0BC1961681546E268515C67
:1006000000F09DF86068401C60602868401E28600B
:10061000FEBD029D2C46103428696969891E8842F6
:1006200003D12868002100F04FF8286800F084F812
:10063000A96922688854501C2060FEBD029948694F
:10064000022821D30868012100F03EF8FEBD6104B4
:10065000002200921C4600F05BF82020205C03285A
:1006600013D002281AD0009E0128029C019D0BD1B4
:10067000206800F041F8A662206C002804D02846CB
:1006800000F02EFB022812D1FEBD029C206800F073
:1006900033F8B8194562818B206804E0B8194562C7
:1006A000818B029800682A4600F04BF8FEBD206856
:1006B00096E7C0461002002000023A00040018002D
:1006C0000002180004003A0010B502680124134625
:1006D0002343A243002900D11346036010BDC1602B
:1006E000704710B50268082413462343A24300292B
:1006F00000D11346036010BD016802220A43026064
:100700007047C2680A400120002A00D11046704795
:10071000002A02D042680A4301E042688A434260EC
:10072000704781B00022009200900098401800901D
:100730000098006801B070478069C0B2704781615D
:100740007047B0B50B46046802252C42FBD101244A
:10075000A4022143002A00D11946C161B0BD0000A6
:1007600070B5012422040026304631462346FFF7A7
:1007700047FE0C4D28463146FFF7A6FD0A480068A3
:10078000C821FFF7F9FC01462846FFF79BFD2846E4
:10079000FFF782FD60040549086028462146FFF7FF
:1007A00082FD70BD006007400000002000E100E015
:1007B00070477047F8B5E120400200900120000228
:1007C000694688800020C88008810390FFF735FEC5
:1007D0008FBD0000F0B5084C2568854366688E43E0
:1007E000A7689743002B02D017430E4305432560AB
:1007F0006660A760F0BDC0460481084070470000F5
:10080000F0B587B0012420040190A60322030092D2
:1008100031462346FFF7F4FDA102029100250D2782
:1008200028463A46FFF7F4FC01983146009A2346E1
:10083000FFF7E6FD284631463A46FFF7E9FC1A4F36
:10084000384631462246FFF7EFFD384602992246E8
:10085000FFF7EAFD874E304600F0D0F803AF384688
:1008600000F05AF9059503200290C00238807D807F
:100870002002B8813D713046394600F02DF90298CA
:10088000010230462A462B4600F0FAF808210623DA
:100890003046224600F08CF8802035503046214604
:1008A00000F0A1F807B0F0BD00000B40F0B586B035
:1008B0003B481021059101603A49C86A40220392E1
:1008C0001043C862384800682728FBD10327B802C4
:1008D0000A6A82430A620122D0020B6803430B605A
:1008E000486808263042FBD008680724A0433843F4
:1008F0000860086B20400328FBD12C4B1868A043EC
:1009000010430093186000200290C86155020B68E4
:10091000AB430B600497FF43CB5910020190034394
:10092000CB510B68B3430B60CB592B43CB51930294
:100930000E681E430E604B6804263342FBD0CB6A20
:10094000039EB343CB620F23DB054B6113074E6954
:100950001E434E61CB59019EB343CB510B682B43D1
:100960000B60486802231842FBD0E043009D2B68CF
:100970000340049E33432B60029BCB610B68034012
:1009800013430B60086B20400128FBD128680599B0
:1009900008432860100329680143296006B0F0BDB0
:1009A0000C8108400480084008A10640000208406D
:1009B0007CB51E460D460446012003046846022D00
:1009C00002D10660012101E006600021204600F00E
:1009D0009FF92046294600F071F80720000261685F
:1009E000014361607CBD10B50269012413462343B5
:1009F000A243002900D11346036110BDB0B5012107
:100A00000B020022154CA04203D0424B984201D168
:100A10000B461A4601210C07114B124DA84204D077
:100A2000114B984204D14C07104B1340234300E074
:100A300013460C030E4A0F4DA84204D00E4A9042B2
:100A400004D14C030D4A1A40224300E01A4600200C
:100A500001230146FFF7BEFEB0BDC04600E00640E0
:100A6000FFFFFFEF0040034000400740FFFFFFDFB4
:100A7000FFEFFFFF0010034000100740FFDFFFFF04
:100A800070B5072424024568A5430D43066A446AED
:100A9000416D4560084D35400126360435430562F9
:100AA00003252D04AC43344344629B0013430522C9
:100AB00091431943416570BDFFFFFC7F072212027D
:100AC00043689343436082680F239A430A438168D3
:100AD000114381607047000010B50A888823C25016
:100AE0004A888423C250032212040368934303609C
:100AF000012212060368934303608A680368134364
:100B00000360044A904202D10B798C2413518989E5
:100B1000816710BD00C0024000218160034A02804D
:100B2000418001221202828101717047FFFF0000A3
:100B300080B5042000F008F980BD80B5012000F0E8
:100B400003F9022000F000F980BD0000F8B5012093
:100B500084072021204600F05AF801283DD12021A9
:100B6000204600F046F8204600F0ABF8C2B21B4920
:100B7000242A02D100240C8000E00C88611C174D4F
:100B80002980174B18550A2A22D1187824281FD1FA
:100B900018794D281CD15879432819D18DB2962443
:100BA000601B0027952D394600D801460D4E70195F
:100BB000FFF711FB0A4930462A46FFF7F3FA0120F6
:100BC00030550648078006482146FFF704FBF8BD6C
:100BD00088B2962801D396202880F8BD48030020CB
:100BE00078010020B800002080B5032000F0ACF8A8
:100BF00080BD02690A400261704710221823012952
:100C000000D01A468168D1400F2008407047026921
:100C10000A400120002A00D110467047C2680A40ED
:100C20000120002A00D1104670470000B0B50D46E3
:100C30000446606818490140E8880843A9880143D0
:100C400028890843E968014361601A210020134A9A
:100C5000944211D0124A944210D0124A94420FD0BA
:100C6000114A94420FD011498C420BD001218907BF
:100C70008C420BD1182106E00A2104E01C2102E07D
:100C8000082100E01E21C8B2FFF7A0FB2968FFF78A
:100C900073FA6062B0BDC046FCE0FFFF0020044074
:100CA00000100040002000400000044000100440FC
:100CB000002A02D0C2680A4301E0C2688A43C260C7
:100CC0007047006880B2704710238B40002A02D022
:100CD0004168194301E04168994341607047000051
:100CE000B0B5442141430948441825463C352068A5
:100CF0000121C904FFF705FD0021012803D128685F
:100D000002210028F3DCC8B2B0BDC04610020020AA
:100D1000F0B54D000124AC40066DA6430665059E66
:100D20001E43890041180B6A064F1F403743436D2D
:100D30000F62AA40A34313434365016D214301653C
:100D4000F0BDC04600FFFCFFFEB50446E600524D74
:100D5000A859002800D19EE00221FFF758FF002883
:100D600000D0FEE70196A8598021FFF750FF002828
:100D700033D0200149490D182846FFF7D1FA002841
:100D800007D045480199405802210022FFF790FF03
:100D900023E00095404D019FE8190079012814D106
:100DA0000620C543009F6D1C17D002AE3846314661
:100DB000FFF78CFAE000384908583178016038466E
:100DC000FFF7AEFA0028EED007E002AE00983146F9
:100DD000FFF77CFAE859317801602F4D019FE859FF
:100DE000EA1911790029009232D04021FFF70FFF54
:100DF00000282E4614D0F0594021FFF7FAFE2001BA
:100E000027490D1806E0E00030580068C1B22846B6
:100E1000FFF76FFAF0590221FFF7EFFE0028F2D139
:100E2000F0592021FFF7F3FE002820D020011C49B3
:100E30000D1806E0E00030580068C1B22846FFF700
:100E400058FAF0590221FFF7D8FE0028F2D10EE03F
:100E50002021FFF7DCFE00282E4608D02001104993
:100E60000818E10071580968C9B2FFF742FAF05951
:100E70000421FFF7D3FE00280DD0F05901242102F0
:100E8000FFF7C5FE002806D0F05904210022FFF725
:100E90000FFF00984471FEBD2003002010000020C9
:100EA0006000002080B5FFF785FCFFF7A9FCFFF785
:100EB00057FCFEE702E008C8121F08C1002AFAD159
:100EC00070477047002001E001C1121F002AFBD1CA
:100ED00070470000F40E0000000000200400000035
:100EE000B40E0000F80E00001000002040050000C5
:080EF000C40E0000008793030B
:04000005000000C136
:00000001FF
