:020000040000FA
:10000000E80C0020C10000001D280000B120000005
:10001000FFFFFFFFFFFFFFFFFFFFFFFFFFFFFFFFF0
:10002000FFFFFFFFFFFFFFFFFFFFFFFF7D29000036
:10003000FFFFFFFFFFFFFFFF5D290000330100000E
:1000400035010000350100003501000035010000D8
:1000500035010000350100003501000035010000C8
:1000600035010000350100003501000035010000B8
:1000700035010000350100003501000035010000A8
:1000800035010000A90F000035010000C12000006B
:10009000D12000003501000035010000CD2D000009
:1000A000692E0000852A00008F2A0000350100001B
:1000B0003501000035010000350100003501000068
:1000C0001D4880471D4880471D4800471D4801695D
:1000D000002908D14169002905D18169002902D18F
:1000E000C169002909D01848C1680901090D002912
:1000F0000ED005290CD006290AD0BFF34F8F134824
:100100001349016013491248C860BFF34F8FFEE7DF
:100110000E4801680E48884200D070470E480F49CB
:1001200001600A480E4901607047FEE7FEE7FEE7FE
:10013000FEE7FEE7FEE70000CD0000008129000099
:100140006501000000030840800108400000002015
:100150000400FA0500ED00E0008108400100000005
:10016000000000000348854600F07CFC0048004782
:10017000A1320000E80C002030B50B4601460020FB
:100180002022012409E00D46D5409D4205D31D469D
:100190009540491B2546954040191546521E002D95
:1001A000F1DC30BD03460B439B0703D009E008C9CF
:1001B000121F08C0042AFAD203E00B780370401C17
:1001C000491C521EF9D27047D2B201E00270401CA5
:1001D000491EFBD270470022F6E710B513460A46C7
:1001E00004461946FFF7F0FF204610BDF8B5024659
:1001F0004A40D40F42004B0052085B089A4202D298
:100200000246084611464A0023D0C30D4A00DDB21B
:10021000120EAD1A202D35DA49020126490AF605DB
:100220008A19002C00D0524220214F1B1146B940A0
:100230002A411018C20D9A4221D0002C17D0012D4E
:1002400008DCDA05801AD20F8019D207DBB200F081
:100250005BFBF8BDDA05801A012340001B06C018BD
:1002600080185A428018CA0F1043490007E0490815
:10027000C2071143DA05801A80194008801800F07F
:100280003BFBF8BD61000122511A001BF7E7012278
:10029000D2075140AAE70122D2075040A6E7024602
:1002A00070B54A40D30FDB0740002DD04A002AD05A
:1002B000010E140E000212020919400A520A841893
:1002C000E50104465443000A120A2E045043A419BF
:1002D0004219200CC543AA18120C0125AD03521C6B
:1002E000521912047F39240400D0521C104301D447
:1002F0004000491EC2B20C06C0092018401C40082C
:10030000802A02D003E0002070BD40084000002990
:1003100000DA0020184370BD70B502464A40D50F80
:1003200040004A00ED0740085208002814D0002A77
:1003300012D0C40DD30D41020120C0055202490A5A
:10034000520AE41A091812187D34914201D3641C30
:1003500000E04900002C01DA002070BD002391422A
:1003600001D3891A0343400849000028F7D1002926
:100370000AD0914202D10121C90705E0914201D280
:10038000012101E00121C943E005C018401900F036
:10039000B3FA70BDF0B507460846584087B0C00FA5
:1003A000049048000E46590040084908BC1A88418C
:1003B00005D2384631461E4617460B4602465800BF
:1003C000400810434CD0300D039040055900400DBB
:1003D000490D0590401A0290402872DA1803012155
:1003E000000B09050843019004980092002805D0ED
:1003F00001995242002088410092019002984021C8
:100400000A1A0199009800F002FA05460C466B465C
:1004100007CB00F00CFAC0197141039A0E0D0023AE
:10042000D71756401A467A40164344D0049A002AF9
:100430002DD0029A012A039A15DC1205C01A9141A7
:1004400001263605001C7141D20F059ED20700938C
:10045000019202962A46234600F09CFA07B0F0BDAE
:1004600038463146FAE71605224A0F46B218C01A36
:10047000B74101210905001C4F4100187F41114679
:1004800018187941E20F10436D19644113E0E20737
:100490006D0815436408C2071443039A0126120528
:1004A000C01A91413605001C7141CE074008304307
:1004B0004908C01851412A46234600F05EFACDE7AC
:1004C000FFE7049801224000C117121A00238B4154
:1004D00004983146C417381AA141EEE730B401241C
:1004E000E407634030BC55E730B40124E4076140C1
:1004F00030BC4FE70000E0FFF0B51FB488B00B99A7
:100500000998002448400999C00F490049080991F9
:10051000C0070B990090490049080B910999089868
:10052000A64608431CD00B990A98084318D009988E
:1005300001244000420D4800410D099824050003A4
:10054000000B204309900B980003000B20430B90F5
:1005500050181C494018002201901446104605E02E
:10056000002001460DB0F0BD032801DA034600E08B
:1005700003239C46C11A0AAE0AE05F0008ADED5B9A
:100580004F00F75B7D430027AA187C41491C5B1E86
:100590006145F2DD410004AB5A522104120C0A43BA
:1005A000240C401C0828DFDB01980290009970465B
:1005B00001910090059B049A0799069800F0EAF9CA
:1005C000D0E700000DFCFFFFF0B50C465C4085B0A5
:1005D000E40FE40703944C00002664085900944695
:1005E000490802460296224321D062460A431ED0A1
:1005F0006200570D4A000E032303550D01240246E5
:100600002C492405781B1B0B360B4018234326432B
:10061000614600901C46501AB44103D30098401C18
:10062000009002E0921800985B41002803DA002055
:10063000014605B0F0BD00200121090507468646A8
:1006400011E064461D46141BB54106D36546521B96
:10065000B341744607430C43A646CD0740084908FA
:10066000284392185B4105460D43EAD110461843D2
:1006700013D06046194650407140084306D060468A
:10068000101AB34106D20122002306E00022012302
:10069000DB0702E00122D2435310009874460105A3
:1006A000381C6141029C039D0019694100F065F905
:1006B000BFE70000FD03000010B5002904DB0C4675
:1006C0000121C9074042A141002B04DB1C46012344
:1006D000DB075242A341101A8B4101D2012010BD09
:1006E000002010BD10B5002904DB0C460121C9070C
:1006F0004042A141002B04DB1C460123DB07524290
:10070000A341101A8B4101D3012010BD002010BD60
:1007100010B5002904DB0C460121C9074042A14164
:10072000002B04DB1C460123DB075242A341801A45
:10073000994101D2012010BD002010BDC217C10F88
:10074000504010B54018CA079623002100F0DCF88D
:1007500010BD00000EB5C217C10F5040CA074018A7
:100760000021054B0293019200910A460B4600F0CE
:1007700011F903B000BD000033040000C20F4100B6
:1007800040020123400ADB05D207090EC0187F2969
:1007900001DA00207047962903DC9623591AC840D5
:1007A00001E096398840002AF4D040427047C20FD9
:1007B000D207400040080BD0C10D0723DB01C91848
:1007C00040020905400A1143C2084007114370471F
:1007D000002001467047CB0FDB07490010B54908E0
:1007E00002460A4307D00A0D07240903E401090B56
:1007F000121B002A01DC002010BDC900440F0C436D
:10080000C100E018D205801800F076F810BD10B5D0
:10081000202A04DB0146203A9140002010BD91407F
:1008200020239C1A0346E3401943904010BD10B5A5
:10083000202A06DBCB170846203A1041C1170B438C
:1008400006E00B461341D0402024A21A91400843F1
:10085000194610BD0FB400B589B00CA900910B99D1
:100860000023CB60204B214A069307920422019279
:100870001F4A02921F4A089202466B46002000F06F
:10088000AAF909B008BC04B0184770B586B006468E
:100890000020C0430190002015460C4600910291B3
:1008A00004903246694604A8FFF7D4FF0346049833
:1008B0002118002D05D0002801D00A4600E022466C
:1008C0002A6000280DD0002B02DD0098884208D055
:1008D000081B0190009432466946029404A8FFF771
:1008E000B9FF06B070BD00002D0E00004D0E0000D7
:1008F000FFFFFF7FAB0A0000002904DA401C49001B
:1009000001D140084000704770B40024050C05D1A7
:100910001024000402D1002921D01124050E01D198
:1009200000020834050F01D10001241D850F01D1FB
:100930008000A41C002801DB4000641C002908D0B2
:1009400020252E1B0D46F540A14000D00121294352
:10095000084301061B1B000ADB1D02D5002070BCEA
:100960007047DB05181880180029F8DA401C490088
:10097000F5D170BC40084000704710B5002B08DA74
:100980000024401C614192185B411A4301D1400888
:10099000400010BDF0B51FB482B005460C0003D076
:1009A000084602F09DFD02E002F09AFD203002466A
:1009B000009021462846FFF72AFF049B059A04462B
:1009C0000F4618431143084314D0184610431BD058
:1009D000009840210A1A1846059900F055F8054676
:1009E0000E46009A05990498FFF711FF084305D0B9
:1009F000012004E02046394607B0F0BD0020C117B1
:100A000005430E432C43374300990E986305401A63
:100A10007905E40A00220C43FD0A0A3002D50020C1
:100A20000146E9E70105101969410C9C0D9D00196B
:100A30006941FFF7A2FFDFE770B54B005B08034396
:100A40000BD04B005C0D002633466542B341D417F2
:100A5000AD1AA34102DB0020014670BD120530181B
:100A6000514170BD064C0125064E05E0E36807CCF8
:100A70002B430C3C98471034B442F7D3FFF776FB76
:100A8000203B0000403B000010B5202A04DB084654
:100A9000203AD040002110BD0B46D340D040202446
:100AA000A21A91400843194610BD10B50F21C0B2DB
:100AB000490200F01BFA10BDFFB5087889B0154651
:100AC000FF2805D0491C2D2804D00022002407E06F
:100AD00000240BE00122F9E70A235C430419491CB6
:100AE0000878FF28F8D1002A00D064420020049042
:100AF0002A7801462D2A01D02B2A0FD16D1C2D2AD0
:100B000002D00022049209E00122FBE700260A221B
:100B100033466D1C00F0ACF9381871412F78FF2F67
:100B2000F4D10C9AA218069202460A4304D0FF237D
:100B3000069A9133DA4205DA002109980A4606C07E
:100B40000DB0F0BD0024B74AB54D2646079200F01F
:100B5000DFF9029006980391002801DA474200E08D
:100B6000074639050020AF4A001C51410191009011
:100B700012E0F80707D022462B4630460799FFF7C8
:100B8000BBFC0646079122462B4610461946FFF746
:100B9000B3FC04460D467F10002FEAD10698019B56
:100BA0000028009A0399029806DAFFF70DFD3246F5
:100BB000079BFFF709FD05E0FFF79EFC3246079B08
:100BC000FFF79AFC049A002A02D00122D207514072
:100BD000099A03C2B4E7FFB591B00020099000253F
:100BE000ED432E209E685C681F460190B9696D1C1C
:100BF000129888470090396A88470028F6D10098F3
:100C0000401C0AD00D20C0018443002E12DD009844
:100C10002B2809D02D280DD103E00020C04315B0AA
:100C2000F0BD012080020443B9696D1C1298884709
:100C3000761E009003A9600501D52D2000E02B2031
:100C40006A461073491C0CA80F9102900AE0B9691A
:100C50006D1C1298884700900120400204431398AD
:100C6000761E0560002E02DD00983028EFD0019935
:100C70000098884246D18020044308E00998401E2D
:100C800009900120400204431399681C0860B96967
:100C90006D1C761E1298884700903028EED031E007
:100CA0000199884205D1200603D480200443761E92
:100CB0001EE0009802F0C8FC002826D00120400267
:100CC000044307A90F980331761E88420BD200987F
:100CD0000F99303808700F98401C0F90200607D5E8
:100CE0000998401E03E0200602D40998401C099090
:100CF000A00502D51399681C0860B9696D1C12988B
:100D000088470090002ECBDC59E0002E57DD00987C
:100D1000652801D0452852D1A00550D503200002F6
:100D20008443B9696D1C761E129888470090002E86
:100D30000CDD2B2804D02D2808D1FF2001300443DE
:100D4000B9696D1C12988847761E0090E00501D5A0
:100D50002D2100E02B21029801700298401C029086
:100D6000019025E00120400204430EA902980131C0
:100D7000761E88420ED20098029930380006000E86
:100D8000087003D10299019881420AD90298401C47
:100D9000029006E0E00501D5234801E022484042E8
:100DA0000990B9696D1C12988847009013980560E6
:100DB000002E04DD009802F047FC0028D2D1F9692A
:100DC000129888470F99FF200870029903AA0870AB
:100DD00000200A900B900CA90AA8099BFFF76CFE53
:100DE000A00502D40120C04319E72420044209D001
:100DF000E00713D138680B9A0A99031D3B6000681D
:100E000006C00BE00B990A98FFF7E5FC0146E007E6
:100E100004D13868021D3A60006801602846FEE689
:100E2000000014400000F03FF1D8FFFF4268002AA4
:100E300008D001680B78491C002B03D0521E06C055
:100E4000184670470121C160881E70474268002A19
:100E50000BD0C3680168002B07D183688B4204D094
:100E6000491E521C06C0002070470020C043704736
:100E7000F0B51FB486B00020009001900290069853
:100E8000069980B204900798090C020400141143DB
:100E900007900027089D099806913E463C4603901E
:100EA0000398A9B20204000C039004982D0C15437A
:100EB000484300212246FFF7AAFCC71971411034AC
:100EC0000E46402CECDB3846029AFFF7A0FC009A55
:100ED000019B8018009059410298019110300290B6
:100EE0004028CCDB00980BB0F0BD00007F2801D972
:100EF000002207E0054B42089A5CC00700D11209A6
:100F00001207120F0120904008407047B83A0000C5
:100F10000EB5054A02920022009213460192FFF795
:100F200039FD03B000BD000033040000FCB50192A0
:100F30000A46C000134BC118002320E0FF20984050
:100F400010421AD0009101249C400020074606461A
:100F500005460BE01146F940214205D00199814038
:100F60000D430F2181400E43001D7F1C082FF1D13E
:100F700000990868B043284308600833091D082B0E
:100F8000DCDDFCBD2020024080B500F043FD01F017
:100F90002FFC01F0D1FB00F07DF801F0EDFB01F03A
:100FA00017F800F01BF880BD10B5054C204600F086
:100FB00010F8012802D1204600F004F810BDC04608
:100FC000006007404168012291434160BFF34F8FA9
:100FD00070474168012008407047000070B5E1206B
:100FE000400200F0D5F800F025F9294DE978FF26F8
:100FF00013E0E978491C012800D03146E9700CE083
:101000000124204600F074F9012804D1E878411C3D
:10101000E9706C7101E0EE703146C8B2401E0928DB
:10102000FBD8C04678440079400087442A241E1823
:10103000120E0A05042FE3E70020802100F014FAC5
:10104000D7E7042000F0E8F9D3E70F2000F0B2FA68
:10105000CFE729460A31042000F070FAC9E7EA1DFB
:101060000020032100F06CF9C3E7A020072201460D
:1010700000F0A4F9BDE729461431092000F022FA56
:10108000B7E728460E3000F0FBF8B2E770BDC04667
:1010900010000020F8B500200290019000904B2134
:1010A000C901009101210A0269468A80C88008812D
:1010B000039004480068642201F002FD00F004F887
:1010C0008FBDC0465C000020F0B58BB009A8D621CA
:1010D00001711D49099107AA0292D72111711B497B
:1010E000079105AD0021A98003910591052100918B
:1010F00001F0B2FF0626142428463146224601F0AC
:1011000077FF0190287904900F27384601F05EFFA1
:101110000298009901F0A0FF28463146224601F0CE
:1011200067FF0446069D384601F050FF01980028ED
:1011300001D0039804902802002C00D00398049951
:10114000084300B20BB0F0BD55800001558001018D
:101150007FB502A8D82101710C4902916C46002587
:10116000A5800095052101F077FF06211422204675
:1011700001F03EFF0446019E0F2001F027FF002CE6
:1011800000D02E46F0B204B070BDC04655800201BA
:10119000F8B5002202920192009200900120000214
:1011A00069468880CA800A810392164800687D22B9
:1011B000D20001F085FC8FBDF8B50D4600900026E9
:1011C000104F14E0002407E0E1B202200A2915D8EC
:1011D000012001F051FF641C386801F069FC00280F
:1011E000F2D000988119386801F0BCFD761CAE423F
:1011F000E8D3009841780020401A4841C0B201B0BD
:10120000F0BDC04660000020B0B5C0B0044601206B
:1012100001026D462846FEF7DEFF02212846FFF751
:10122000CBFF69782046FFF7C7FF0021091A484124
:1012300040B0B0BDBCB56846002484800F49009121
:10124000062100F0E1F9962001F016FFED4D284649
:101250002146FFF7D9FF01280CD12878002809D1B1
:101260006878282806D1A878002803D13C2001F00E
:1012700003FF0124204602B0B0BDC0467704002819
:10128000B0B5A0B004466D46A81C7E21FEF7A3FFB2
:1012900077202870092068700620E870681D0021FA
:1012A00004E0421A631A1B781370491E8A1DF8D194
:1012B00068460B2100F0A8F9962001F0DDFED14C24
:1012C000002520462946FFF79FFF401E291A41416D
:1012D00020782A1A42410A406078801F291A414129
:1012E0001140A278A81A5041084020B0B0BDC046B5
:1012F000BCB56A4600241471104900915071062152
:10130000104600F081F9962001F0B6FEBD4D28464A
:101310002146FFF779FF401E211A41412878221A01
:1013200042410A406878C01F211A41411140AA7801
:10133000A01A5041084002B0B0BDC0467704000773
:10134000F0B5A1B016460C46054601AF781C7F21CA
:10135000FEF741FF772038700920F8701F201F2CFE
:1013600000D30446781D002102E0725C4254491CFF
:10137000A142FAD3E11C01A841708570611DC9B278
:1013800000F042F9962001F077FE9E4C00252046A1
:101390002946FFF739FF401E291A414120782A1AB1
:1013A00042410A4060780938291A41411140A27827
:1013B000A81A5041084021B0F0BDC046BFB501ABEE
:1013C00000241C71134D01955871000A9871D97150
:1013D000080A18725A720A21184600F015F9962068
:1013E00001F04AFE874D28462146FFF70DFF401EBB
:1013F000211A41412878221A42410A406878083867
:10140000211A41411140AA78A01A5041084004B065
:10141000B0BDC04677080008BCB56A460024147108
:101420001049009150710621104600F0EDF8962009
:1014300001F022FE734D28462146FFF7E5FE401ECF
:10144000211A41412878221A42410A4068780E3810
:10145000211A41411140AA78A01A5041084002B017
:10146000B0BDC0467704000EBFB501AA00241471B8
:10147000134B019390705171080A9071080CD07150
:10148000080E10720921104600F0BEF8962001F0F7
:10149000F3FD5C4D28462146FFF7B6FE401E211A9B
:1014A00041412878221A42410A4068781038211AAE
:1014B00041411140AA78A01A5041084004B0B0BD83
:1014C0007707001070B5A0B00D4604466E46701C3C
:1014D0007F21FEF780FE772030700520F0701F20FE
:1014E0001F2C00D30446701D002102E06A5C4254A8
:1014F000491CA142FAD3E11C68464170611DC9B282
:1015000000F082F8962001F0B7FD3E4C0025204601
:101510002946FFF779FE401E291A414120782A1AF0
:1015200042410A406078401F291A41411140A27887
:10153000A81A5041084020B070BDC04670B5A0B098
:101540000D4604466E46701C7F21FEF744FE772050
:1015500030700A20F0701F201F2C00D30446701D2D
:10156000002102E06A5C4254491CA142FAD3E11C0A
:1015700068464170611DC9B200F046F8962001F03E
:101580007BFD204C002520462946FFF73DFE401EEE
:10159000291A414120782A1A42410A4060780A38C3
:1015A000291A41411140A278A81A5041084020B0A0
:1015B00070BDC046BCB56A46002414711049009144
:1015C00050710621104600F01FF8962001F054FDDE
:1015D0000C4D28462146FFF717FE401E211A4141B7
:1015E0002878221A42410A4068780B38211A414172
:1015F0001140AA78A01A5041084002B0B0BDC046C0
:101600007704000BCC09002080B50A460146024849
:10161000006801F0B1FB80BD6000002070B50124BE
:101620006004A10300252A46234600F04FFCD14860
:1016300000681921ED4A00F08BFE20462146224623
:10164000FFF774FCEA4E304621462A4600F08EFC35
:10165000304621462A4600F0A4FC30462146224668
:1016600000F08DFC70BDC046F0B58BB016460F463D
:10167000044609A86BA10722FEF794FD04A81421D3
:10168000FEF7A9FD032538462840C11E4A1E914198
:10169000012303942C4202D0012900D0BFE00C2486
:1016A00027403A460C3A00210291891A514159408B
:1016B000039A1207920F02D0012900D0AFE003284D
:1016C00019D102200090019301F0E8FC09A80571EE
:1016D00046713146D031C9438171072100F02CF9A0
:1016E000009801F0DBFC04A8062100F0EBF8019B58
:1016F000002800D093E00C2F19D1022738461D4650
:1017000001F0CCFC09A804714671C1787118D83178
:10171000C9438171072100F00FF9384601F0BEFC82
:1017200004A8062100F0CEF82B46002877D101232B
:101730000398184219D0022630461C4601F0AEFC30
:1017400009A8047102994171C178CD31C9438171F1
:10175000072100F0F1F8304601F0A0FC04A80621B2
:1017600000F0B0F82346002859D10398800719D516
:10177000022630461C4601F091FC09A80671029928
:101780004171C178CE31C9438171072100F0D4F88D
:10179000304601F083FC04A8062100F093F82346AC
:1017A00000283CD1039840071AD5022630461C4633
:1017B00001F074FC09A80421017102994171C178FA
:1017C000D031C9438171072100F0B6F8304601F0ED
:1017D00065FC04A8062100F075F8234600281ED1F8
:1017E000039800071AD5022528461C4601F056FC2E
:1017F00009A80821017102994171C178D431C94306
:101800008171072100F098F8284601F047FC04A8F0
:10181000062100F057F82346002800D1029B184605
:101820000BB0F0BD5573040100000000F0B589B0A5
:101830000C46064607AF0420B8702048388002A83E
:1018400014210190FEF7C7FC0225284601F026FC72
:10185000FD703E717420C043113041B28C4200DCF7
:10186000044661B26420642900DB04467C713019AF
:10187000CE30C043B8710721384600F05DF82846E5
:1018800001F00CFC0621019800F01CF80146012033
:101890008B22002910D102A9C97802290CD1711E0E
:1018A000CBB20020072B07D8DA40D20704D049B2C8
:1018B0008900034A51580C7009B0F0BD55730000FF
:1018C000003B0000F0B589B00D46044602AE301D65
:1018D0001821FEF780FC19200290059401950695C9
:1018E0007848079000277776224D2868314600F027
:1018F000CDFD286800F0F2FB0028FAD0012001F0AD
:10190000CDFB0198411E384602E08018C0B27F1C12
:10191000FBB2E25C9942F8DCFF214840801A411E8C
:10192000884109B0F0BDC04601460120022902D815
:10193000104801600020704710B588B0002207925F
:101940000692059204921923019302900391E948AB
:10195000069001A94A76074C206800F0FDFD20683A
:1019600000F0BCFB0028FAD00A2001F097FB08B079
:1019700010BDC046D4020020F8B5DF4800686821D9
:101980001A4A00F0E5FC01246004A10300252A4660
:10199000234600F09BFA2603204631462246FFF7F5
:1019A000C5FA134F384631462A4600F0DFFA38466A
:1019B00031462A4600F0F5FA38463146224600F014
:1019C000DEFA284600F016F8204600F009F928460D
:1019D00000F0E2F8284600F035F9372006212A46C3
:1019E00000F098F9204600F05DF9F8BDA0860100EE
:1019F00000200B4080B5002805D0012808D16B20BD
:101A00000621012202E06B200621002200F082F96B
:101A100080BD000070B5FFF7AFFF00F0B5F8032000
:101A200000F010F90024204600F0B6F8042000F081
:101A300041F9022000F0ECF86A20214600F05EF93E
:101A40002320214600F05AF9752000F077F801466E
:101A50000120682914D16B2001250A4E2946B04780
:101A60006C202146B047042000F024F9022000F049
:101A7000CFF837208021B04738202946B04720468C
:101A800070BDC046FD1C000070B588B00D4606460E
:101A900001AC201D1821FEF79EFB682001900496E2
:101AA00005959448069000206076934D286821465D
:101AB00000F0ECFC286800F011FB0028FAD008B018
:101AC00070BDC0463075000010B59F4C21462831CE
:101AD0004720022200F00EF82920205C2821615CBA
:101AE0000902014308B2FEF729FE616AFEF714FC01
:101AF00010BDC0467CB514460D4601A908702720CC
:101B0000C0439149024605E003462733534300266C
:101B1000CE54521E13463233F6D101A80126314667
:101B200000F0CEF8304601F0CBFA28462146FFF708
:101B3000ABFF304601F0C4FA7CBDC046BCB501A97C
:101B400008702720C043804D014605E00246273239
:101B50004A430023AB54491E0A463232F6D101A84B
:101B60000124214600F0ACF8204601F0A9FA2846ED
:101B700028302146FFF788FF204601F0A1FA2820EF
:101B8000285C02B0B0BDC04680B56B2007210122A1
:101B900000F0C0F880BD0000B0B504460B480470EA
:101BA00001229103032C02D8A10009A35958016214
:101BB00022401C250321284600F0ACF802222240D6
:101BC0000421284600F0A6F8B0BDC046D000002091
:101BD000004000000020000000100000000800008D
:101BE000F8B504460126224632406B250021144BED
:101BF00028469847022722463A4028463146104B4D
:101C0000984704222240284639460D4B9847F8BD94
:101C1000F8B504460126224632401A250021084B19
:101C200028469847022722463A4028463146044B28
:101C300098470422224028463946014B9847F8BD70
:101C4000151D0000B0B504463F4844701149032CEF
:101C50000CD8A20001A3D2589746C0466D1C0000C4
:101C6000771C0000711C0000751C00000C4902E08C
:101C70000A4900E008494162012222401B25032154
:101C8000284600F047F8022222400421284600F0AE
:101C900041F8B0BD00008342333383413333034204
:101CA0000000034380B5012202403720072100F0E5
:101CB00031F880BD80B50146192000F01FF880BDC5
:101CC00010B588B00022079206920592049268230C
:101CD0000193029003910748069001A94A76064CA9
:101CE000206800F039FC206800F0F8F90028FAD0EC
:101CF00008B010BD3075000064000020E0B501AAF6
:101D00001070517002211046FFF7DAFF012001F038
:101D1000D7F98CBDF8B515460E4604460A49283158
:101D200001273A46FFF7E6FEB74028200649095C3E
:101D300038460843B943002D00D10846C1B22046B9
:101D4000FFF7DCFFF8BDC046D00000200021416055
:101D500001607047016842688A4203D2511A806864
:101D600008187047501A7047002303604360826070
:101D7000C160704710B50368446800229C420AD0D5
:101D8000C268D25C0A70591C83680022994200D054
:101D90000A4602600122104610BDF8B514460D46F1
:101DA0000746002606E0A95D384600F008F800283E
:101DB00002D0761CA642F6D3304601B0F0BD70B515
:101DC00044680668631C85680022AB4202D1002E7D
:101DD00002D109E0B34207D0C26811550021AB42DD
:101DE00000D0194641600122104670BD416800686C
:101DF000091A0020401A48417047000070B5044697
:101E0000124D6E6900F024F82060072131404A1E0F
:101E10002049062A0AD8C0467A44127952009744CB
:101E20000C03030505070A00084606E0002004E04D
:101E30000120C00301E07D200002606029680522C6
:101E4000052900D31146C840A06070BD208008401D
:101E5000B0B50F490868CA694C6801235D020020CB
:101E60002C4214D08869040F1C400A48E040002A24
:101E70000DDB8A6989694B0D03211940D30D1F229F
:101E80001A401023002A00D013465843C840B0BD62
:101E90000080084000127A00BFB50446E0081C210B
:101EA000014009480D5801A8FFF7A8FF1F21214054
:101EB000032088402840C840811C2E2C00D00146B9
:101EC0000398C84004B0B0BD38800840F0B5084C55
:101ED00025688543A6688E43E7689743002B02D0A8
:101EE00017430E4305432560A660E760F0BDC0467A
:101EF0002480084084B0F8B506AC0FC406AD28466F
:101F0000A23001F073FD0090AD35284601F06EFD62
:101F1000FEF720FC06460F4635AC2046A23001F005
:101F200065FD0546AD34204601F060FDFEF712FC6C
:101F300032463B46FEF7D2FA0B4F03C70098083FE4
:101F4000FEF708FC04460E462846FEF703FC224630
:101F50003346FEF7C3FAB860F96001203874F8BC64
:101F600001BC04B00047C04660010020002A02D036
:101F700002680A4301E002688A4302607047002A4F
:101F800002D042680A4301E042688A4342607047D7
:101F9000002A02D002690A4301E002698A43026111
:101FA000704710B583688B43C4688C43012A03D003
:101FB000002A02D10B4300E00C438360C46010BDD3
:101FC000C2690A400120002A00D110467047000073
:101FD000F0B585B0012420044121090200252A46DC
:101FE0002346FFF773FFA7021B4839462A46FFF72F
:101FF000D8FF21020091062628463246FEF796FFBA
:10200000284639463246FEF791FF03950295019521
:102010004B20C001019001A900988880CD800D81DE
:102020000495A607304600F067FFE0050B490860FD
:1020300030462146224600F0A1FFFF200006084955
:102040000A68824332430A6030462946224600F03D
:10205000B2FF05B0F0BDC04600000B4000E100E05B
:1020600014E400E0F8B50E464120010200250124E9
:1020700028462A462346FFF729FF2102062728463D
:102080003A46FEF753FFA10228463A46FEF74EFFB6
:10209000A7073846314600F02FFF3846294622462A
:1020A00000F089FF38462146224600F084FFF8BD43
:1020B000024801680029FCD07047C0467801002022
:1020C00080B5012000F03CF8022000F039F880BD16
:1020D00080B5002000F034F880BD000070B54425C4
:1020E0004543E44E7019026B0421012A25D0426B4E
:1020F0000521012A21D003462833826A0121002AC2
:102100001BD0C16B002908DDC26A2C300021012AD6
:1021100013D10021016003210FE000221A607059E1
:1021200001214C02214600F09FFA7059214600F02F
:1021300024FA705900F03AFA0221C8B270BDC046C4
:10214000FEB5024644265643CA4FB859B91900286D
:1021500000D1DFE0019202910C2100F08EFA0124FF
:10216000A502284207D00120029908630868294681
:1021700000F003FAFEBD2102C2050CD50120029C2D
:102180002063206800F0F9F9206800F081FA2068E7
:1021900000F07EFAFEBDE102020506D50120029A9A
:1021A0005063106800F0E9F9FEBD6102644A904294
:1021B0001ED02204904272D0624A904200D183E045
:1021C000614A904214D019221204904226D01D2256
:1021D0001304984222D0520490424BD05B4A904262
:1021E00048D08842029A00D094E00120D062D8E71B
:1021F000029D286800F0C1F9286800F0D7F9286C22
:10220000002809D0019800F06DFF022800D181E07C
:102210002868002100F0B3F9EC62FEBD029E34464E
:1022200014343546103530697169891E884203D1EE
:102230003068002100F096F9306800F029FAB169A1
:102240002A688854501C286021688842019C61D10A
:10225000306800F0ABF90020B062306C002859D033
:10226000204600F03FFF022854D03068002100F0E3
:1022700086F9FEBD029B1A46083299681868002943
:102280002BD0BC1961681546E268515C00F003FA76
:102290006068401C60602868401E2860FEBD029D8A
:1022A0002C46103428696969891E884203D1286840
:1022B000002100F057F9286800F0EAF9A9692268BE
:1022C0008854501C2060FEBD02994869022821D321
:1022D0000868012100F046F9FEBD61040022009269
:1022E0001C4600F0C1F92020205C032813D00228EE
:1022F0001AD0009E0128029C019D0BD1206800F09D
:1023000055F9A662206C002804D0284600F0EAFEA9
:10231000022812D1FEBD029C206800F047F9B819CE
:102320004562818B206804E0B8194562818B029870
:1023300000682A4600F0F2F9FEBD206896E7C04624
:1023400000023A00040018000002180004003A00DD
:10235000F0B589B005460124E703E604C148444BC3
:10236000022D23D0012D40D0002D5DD1794804915C
:10237000BB49016041490020059202460393234670
:10238000FFF7A4FD022610210297072730463A46A0
:10239000FEF7CCFD202130463A46029FFEF7C6FDEF
:1023A0000499059A2005039B18603DE0049188215B
:1023B0000592684A50503049002002460393234654
:1023C000FFF784FDA103022401960726204632462A
:1023D000FEF7ACFD204639463246FEF7A7FD0499CC
:1023E000059A0398019B03601EE0049159494864D3
:1023F000214900200592024603932346FFF766FD1C
:102400002103019602260297072730463A46FEF737
:102410008DFD610330463A46029FFEF787FD049921
:10242000059A0398019B036006AC00202070607041
:10243000A07021810792124800681249FDF79CFEA6
:10244000E07044266E43434DA859214600F0BAF887
:10245000A8590D490124224600F006F9A859214641
:1024600000F098F8A859394600F018F909B0F0BD05
:1024700000E100E0D802002001400000024000001E
:102480005800002000127A000507010080B50022E4
:102490000A7600F001F880BDFEB50C4644254543A0
:1024A0002C48461900227260A068B0606068F06035
:1024B000326120697061E068B0612068F061207E5F
:1024C000202170540120B062F26232630292726382
:1024D0007D20C1006069FDF74FFEF06337463C3751
:1024E00031461C31F06B002813DD0091607E3064B2
:1024F0000195184840590125294600F040F83068F8
:10250000E90400F058F8012804D138680128F6DA07
:10251000FEBDFEE730686F02394600F02EF83068E5
:1025200039462A4600F0A0F8AA02207E401EC0B21A
:10253000022805D8306869042A4600F095F8029A06
:10254000019804490818426200980188306800F038
:10255000E5F8FEBDD802002080B501220A76FFF71B
:102560009BFF80BD10B50268012413462343A2439C
:10257000002900D11346036010BDC160704710B53B
:102580000268082413462343A243002900D11346BE
:10259000036010BD10B50122540303681A4622439C
:1025A000A343002900D11A46026010BD016802222F
:1025B0000A4302607047C2680A400120002A00D125
:1025C00010467047FEB50D460446206885218843B5
:1025D0002978014368780843A97801432160288954
:1025E000A060022000261E498C4204D01D4884426F
:1025F000334604D10020C0B2FFF74EFC034603204F
:102600008103206808400121CA039042029606D047
:102610008903884205D0002804D1062602E0092655
:1026200000E00826092001935843696814274F43A6
:102630003946FDF7A1FD801BED78401B002800DC2A
:10264000029820610B20019948433946FDF794FD1B
:10265000801B401B002800DC02986061FEBDC04664
:102660000090044000800440002A02D042680A43DF
:1026700001E042688A434260704781B000220092C4
:1026800000900098401800900098006801B07047D2
:102690008069C0B27047816170470000F0B502697F
:1026A00043690324A403066826400127FD031A4C4E
:1026B000AE420CD0BF03BE4211D0002E24D1661C06
:1026C000B14215D1022A1FD39B1E921E1CE0BD03EE
:1026D000A94217D0002917D1DB1CD21C14E0002915
:1026E0000DD0A94210D1002A0ED05B1E521E0BE065
:1026F000A94209D1022A07D3DB1ED21E04E09B1C8B
:10270000921C01E05B1C521C026143610268224082
:102710000A430260F0BDC046FF3F0000B0B50B4663
:10272000046802252C42FBD10124A4022143002A83
:1027300000D11946C161B0BDF8B501246004A10300
:1027400000252A462346FFF7C1FB202620463146B6
:102750002246FEF7EBFB244F384631462A46FFF768
:1027600020FC384631462A46FFF700FC3846314601
:102770002246FFF704FCF8BDF8B501246004A1036C
:1027800000252A462346FFF7A1FB20462146224684
:10279000FEF7CCFB144E304621462A46FFF701FCDB
:1027A000124F304621462246B847304621462A4637
:1027B000FFF7EEFB304621462246B8470227204667
:1027C00039462246FEF7B2FB304639462A46074BC9
:1027D0009847304639462A46FFF7E3FB30463946EC
:1027E0002246FFF7CCFBF8BD00200B406D1F000018
:1027F00010B500242046FFF797F80146FF20012975
:1028000007D0FEF70BFF0F2021462246FEF72CFFD4
:10281000204610BD80B5FFF709F880BD7047000065
:10282000F0B585B00F460546FFF74EF9FDF7BFFF3F
:102830003F4A02923F4B0393FDF75EFE00223E4B60
:10284000FDF7C2FEFDF7C7FF04462846FDF7AFFFC0
:1028500006460D463846FDF7AAFF02460B463046AF
:10286000294601F007F80746019104942046FDF738
:102870009EFF324A324BFDF73FFE05460C46314E75
:102880007068FDF794FF2A462346FDF783FDFDF7A8
:10289000A2FF0446746038460199FDF79CFF21466B
:1028A000FDF7F5FC0190FDF782FF04460D46029FFF
:1028B0003A46039BFDF72CFF0646234B204629464C
:1028C0003C463A46FDF766FDFDF785FF002E00D138
:1028D00001980390FDF76BFF05460F461B4B224600
:1028E000FDF7EAFE06461A4B284639462246FDF712
:1028F00051FDFDF770FF002E00D1039811490860CB
:102900001449FDF7CCFC044613490498FDF7C7FCB5
:102910002146FDF76BFCFDF731FF6421642800DBE5
:1029200008466321C943884200DC084605B0F0BD73
:10293000182D4454FB210940008066407B14AE47AB
:10294000E17A74BF04000020FB2119C0FB2109C0FB
:10295000FB2119400000FA43000020417047F8B500
:10296000E12040020090012000026946888000209A
:10297000C88008810390FFF775FB8FBD704700008A
:10298000F0B586B03B481021059101603A49C86A0C
:10299000402203921043C862384800682728FBD1C0
:1029A0000327B8020A6A82430A620122D0020B6836
:1029B00003430B60486808263042FBD008680724B0
:1029C000A04338430860086B20400328FBD12C4B00
:1029D0001868A04310430093186000200290C8615B
:1029E00055020B68AB430B600497FF43CB591002B1
:1029F00001900343CB510B68B3430B60CB592B437E
:102A0000CB5193020E681E430E604B68042633427E
:102A1000FBD0CB6A039EB343CB620F23DB054B6134
:102A200013074E691E434E61CB59019EB343CB51F0
:102A30000B682B430B60486802231842FBD0E0432D
:102A4000009D2B680340049E33432B60029BCB61A7
:102A50000B68034013430B60086B20400128FBD137
:102A600028680599084328601003296801432960F4
:102A700006B0F0BD0C8108400480084008A1064063
:102A80000002084080B5042000F044FB80BD80B502
:102A9000012000F03FFB022000F03CFB80BD000065
:102AA00080B50001B3490818FFF750F980BDC04652
:102AB00080B50001AF490818FFF74CF980BDC0464A
:102AC000F0B587B0154601263302B20603929E4F39
:102AD0009E4C9F4A042800D91FE10492069105905C
:102AE0007844007940008744024171A2E700B107B1
:102AF0000191B5480160B34896498024224603936A
:102B0000FFF732F99B4894492246FFF72DF930042C
:102B100041210902002422463346FFF7D7F90295E6
:102B2000B502384629462246FFF73BFA06272046DB
:102B300003993A46FEF7FAF9204629463A46FEF747
:102B4000F5F9F005049908603022019C20463146D1
:102B500000F028FA2046029900F01CFA204603995A
:102B6000324600F00BFA98480671D4E096487C494A
:102B70008160944810307749803180252A46FFF7DC
:102B8000F3F87C481030744980312A46FFF7ECF89E
:102B9000B0040921C90200252A463346FFF796F9F9
:102BA0007703204639462A46FFF7FBF93103022412
:102BB000062520462A46FEF7B9F9204639462A4618
:102BC000FEF7B4F9049803990160A4E07E48E64951
:102BD00001616048C1187B48203080252A461F4685
:102BE000FFF7C2F85C48C119624820302A46FFF757
:102BF000BBF8B0040321490300252A463346FFF7FA
:102C000065F9F703204639462A46FFF7CAF9B103AA
:102C10000224062520462A46FEF788F92046394632
:102C20002A46FEF783F904980399016073E0664829
:102C3000D0490191816103200295C50145484119A0
:102C400060483030802422460393FFF78DF84248D5
:102C50004119484830302246FFF786F830042121D8
:102C60004902002422463346FFF730F92025384632
:102C700029462246FFF795F91021062720463A46B5
:102C8000FEF754F9204629463A46FEF74FF930063A
:102C9000049908603022019C2046314600F082F9F8
:102CA0002046029900F076F920460399324600F05A
:102CB00065F9454806772EE04348AD490162750243
:102CC000244841193F48403080242246FFF74CF801
:102CD00021484119274840302246FFF745F8700443
:102CE00005210903002422463346FFF7EFF81B486D
:102CF000082529462246FFF754F9042106243046C8
:102D00002246FEF713F9304629462246FEF70EF911
:102D100070060499086006990598C5002A4E7059F6
:102D200000F0EAF8705900210124224600F043F92E
:102D300070592146224600F03EF970590921224679
:102D400000F01CF907B0F0BD00000B4000400B4044
:102D500000E100E0900600201004002000200B405D
:102D60000010044080B50001024A1018FFF702F875
:102D700080BDC04610010020F8B5154600910446FC
:102D8000200110490F18B868461E3846FEF7E2FFCA
:102D9000301A0026A84212D3384600992A46FEF778
:102DA000FCFF0546002D0AD0E00007490A18002361
:102DB000537108580621012200F0E0F82E463046F3
:102DC00001B0F0BD80000020E8030020F8B501202C
:102DD00084072021204600F081F801283DD12021E0
:102DE000204600F06DF8204600F0D1F8C2B21B4931
:102DF000242A02D100240C8000E00C88611C174DAD
:102E00002980174B18550A2A22D1187824281FD157
:102E100018794D281CD15879432819D18DB29624A0
:102E2000601B0027952D394600D801460D4E7019BC
:102E3000FDF7D1F90A4930462A46FDF7B3F90120DA
:102E400030550648078006482146FDF7C4F9F8BD0D
:102E500088B2962801D396202880F8BDCA090020A0
:102E6000380200207C01002010B5424C2021204671
:102E700000F034F800281CD0204600F088F80D49F6
:102E80000B885A1C0A800C4AD0540888022810D398
:102E9000088813180120C4431B5D4F2B09D10B88F0
:102EA000D3180022D4431B5D4B2B02D1034B187067
:102EB0000A8010BDE20A0020CC0A0020E00A0020AF
:102EC00002690A400261704710221823012900D0CC
:102ED0001A468168D1400F200840704702690A40B5
:102EE0000120002A00D110467047C2680A40012024
:102EF000002A00D110467047B0B50D460446606800
:102F000018490140E8880843A988014328890843F3
:102F1000E968014361601A210020134A944211D0EC
:102F2000124A944210D0124A94420FD0114A94424D
:102F30000FD011498C420BD0012189078C420BD153
:102F4000182106E00A2104E01C2102E0082100E02B
:102F50001E21C8B2FEF7A0FF2968FDF70DF96062D7
:102F6000B0BDC046FCE0FFFF002004400010004060
:102F7000002000400000044000100440002A02D05D
:102F8000C2680A4301E0C2688A43C26070470068B1
:102F900080B270474269FF239A430A43802111435C
:102FA0004161704749008A4030238B4081689943D2
:102FB00011438160704710238B40002A02D0416882
:102FC000194301E04168994341607047E0B50190C1
:102FD0007D208101B1480068FDF7CEF80199414399
:102FE00001910198411E01910028FAD18CBDC04683
:102FF000FEB51646044600271E4D0294019115E0C9
:10300000002407E0E1B20220B14221D80120FFF7FD
:10301000DDFF641C2868FFF74BFD0028F2D0029CFE
:10302000E1192868FFF79EFE7F1C01998F42E7D3C4
:10303000481E00210A4603E0E35CD2B2D218491CC4
:10304000CBB29842F8DC205CD1B2401A411E8841D4
:10305000C0B203B0F0BDC04670B50C460546054E83
:103060003068FFF71DFD306829462246FFF784FED1
:1030700070BDC0465C000020E0B501907D2081015C
:1030800086480068FDF778F801994143019101985D
:10309000411E01910028FAD18CBDC046E0B50190D7
:1030A0007D2081017D480068FDF766F80199414364
:1030B00001910198411E01910028FAD18CBDC046B2
:1030C000E0B501907D20810174480068FDF754F857
:1030D0000199414301910198411E01910028FAD1C3
:1030E0008CBDC046B0B5442141430948441825462B
:1030F0003C3520680121C904FFF75DFA0021012851
:1031000003D1286802210028F3DCC8B2B0BDC04654
:10311000D8020020FEB50446E600544DA859002808
:1031200000D1A1E00221FFF7D9FE002803D0A85961
:103130000221FFF7C5FE0196A8598021FFF7CEFEB8
:10314000002833D020014A490D182846FEF74EFECC
:10315000002807D045480199405802210022FFF776
:103160000DFF23E00095414D019FE81900790128EA
:1031700014D10620C543009F6D1C17D002AE3846FF
:103180003146FEF7F7FDE000384908583178016014
:103190003846FEF72BFE0028EED007E002AE00987E
:1031A0003146FEF7E7FDE859317801602F4D019F68
:1031B000E859EA1911790029009232D04021FFF72D
:1031C0008DFE00282E4614D0F0594021FFF778FEDE
:1031D000200128490D1806E0E00030580068C1B20F
:1031E0002846FEF7ECFDF0590221FFF76DFE00289E
:1031F000F2D1F0592021FFF771FE002820D02001E4
:103200001C490D1806E0E00030580068C1B228469D
:10321000FEF7D5FDF0590221FFF756FE0028F2D146
:103220000EE02021FFF75AFE00282E4608D020018C
:1032300010490818E10071580968C9B2FEF7BFFDCE
:10324000F0590421FFF751FE00280DD0F059012458
:103250002102FFF743FE002806D0F0590421002286
:10326000FFF78CFE00984471FEBDC046E8030020C5
:103270008000002010010020E0B501907D20810138
:1032800006480068FCF778FF0199414301910198D5
:10329000411E01910028FAD18CBDC0465800002083
:1032A000F0B5FFB0BEB0FFF75AFBFDF76DFE7E4EE6
:1032B000FDF74EFF30808EACBA2220467B49FCF7EA
:1032C00071FF10346846844A0146236804340B6059
:1032D0000431043AF9D1227801340A70013122789C
:1032E0000A70AC307D4A72490B68043103600430C7
:1032F000043AF9D10A78013102700130097801707D
:10330000919B909A8F998E98FEF7F4FDC820FFF755
:10331000B3FFFDF71DFF7188012848D1481C70805C
:1033200001205E905F242146694A1646B0475E2020
:10333000C54302205D902946B04704205A9021469B
:10334000B04708205C902946B04734464B27B80068
:103350005B9096305F49884750265E983146A0477B
:103360005D983146A04728460F3046B25A9C204609
:103370003146574A90475C983146554EB047F80061
:1033800054498847681D45B25E9829463746B84774
:103390005A265D983146B84720462946B8475C987A
:1033A0003146414EB8475B984A49884780E7002933
:1033B0002CD0002070805FACBA2220463B49FCF73D
:1033C000F1FE10346846444A0146236804340B6019
:1033D0000431043AF9D1227801340A70013122789B
:1033E0000A70AC303D4A32490B6804310360043046
:1033F000043AF9D10A78013102700130097801707C
:10340000629B619A60995F98FEF774FD294D2021B7
:103410002846FEF7D5FD00282DD12748007C00283E
:1034200024D00120C107254C20688843FDF7BFF94F
:10343000234A244BFDF756F9002808D1002070607C
:10344000214908601C490874204820600EE01A4C8D
:1034500003CC083CFDF7BFF90746A068E168FDF71B
:10346000BAF901463846FFF7DBF9706020210022E7
:103470002846FEF796FD7068413041B20120144C99
:10348000A04770684121081A41B20220A047706825
:10349000BF3041B20420A0474020C0437168401AA9
:1034A00041B20820A04703E7700000207C01002003
:1034B0001009002000200B406001002004000020C3
:1034C00039B4C876BE9FAA3F080000200000A04083
:1034D000152800009D300000A8000000B800000082
:1034E0002021020C01D010211046020A01D0104602
:1034F0000839020901D01046091F820801D0104680
:10350000891E420801D0881E7047081A70470000C3
:103510004900CA020243100000D004204A0D01D025
:1035200001221043044A490D914201D1022108436E
:10353000012800D105207047FF070000F8B50446B8
:103540004F1EC8000838211815461E4608684968ED
:103550003A4606239A4310D02A463346FCF7CCFF5E
:103560003A46D200083AA3181A687F1E5B68FCF737
:1035700011FF06223B469343EED1022F23D0042FA6
:1035800011D0062F2FD12A463346FCF7B5FFE36A48
:10359000A26AFCF7FFFE2A463346FCF7ADFF636ADA
:1035A000226AFCF7F7FE2A463346FCF7A5FFE369DB
:1035B000A269FCF7EFFE2A463346FCF79DFF6369DC
:1035C0002269FCF7E7FE2A463346FCF795FFE368DD
:1035D000A268FCF7DFFE2A463346FCF78DFF6368DE
:1035E0002268FCF7D7FEF8BD10B50122FDF724FADA
:1035F00010BD10B5FCF7CEFE10BD0000034A10B59B
:1036000000201107FDF718FA10BD000001FDFFFFB3
:1036100001480068704700000000002002E008C870
:10362000121F08C1002AFAD170477047002001E03C
:1036300001C1121F002AFBD1704700000149086038
:10364000704700000000002030380A2801D2012015
:103650007047002070470000F0B589B004460D4661
:103660004800069172494008884215DB714988423A
:1036700003DC884207D1002C05D020462946FFF7FD
:10368000B3FF09B0F0BD6C48002D02DD6B4909B0F5
:10369000F0BD6B4909B0F0BD6A49884211DA6A4948
:1036A00088420BDA20462946FFF732FF042801D171
:1036B000FFF7A4FF2046294609B0F0BD0026F643D7
:1036C0005DE06D0061496D08884232DA60498842E8
:1036D00019DA0026012332469B0720462946FCF7CB
:1036E00059FE07460191012220462946FDF7A4F91B
:1036F0000022584BFCF7F2FE3A46019BFCF764FFB0
:1037000004460D463BE001260022524B2046294646
:10371000FCF740FE0746009100224E4B204629460A
:10372000FCF7DCFE3A46009BFCF74EFF04460D46D4
:1037300025E04949884219DA02260022474B2046F3
:103740002946FCF7D9FE0022424BFCF723FE074630
:1037500002910022414B20462946FCF7BFFE3A4623
:10376000029BFCF731FF04460D4608E00326224683
:103770002B4600203A49FCF727FF04460D46224617
:103780002B4610461946FCF7B7FE07460B46024685
:103790000191FCF7B1FE0246029032480B460391BC
:1037A00006217844FFF7CAFE3A46019BFCF7A4FEC7
:1037B00000902D48019105217844039B029AFFF760
:1037C000BDFE039B029AFCF797FE02460B46019949
:1037D0000098002E0BDAFCF7DDFD22462B46FCF7A5
:1037E0008BFE22462B46FCF77FFE09B0F0BDFCF7AE
:1037F000D1FD22462B46FCF77FFE1C4AF6007A4498
:1038000093191A685B68FCF769FE22462B46FCF7A1
:1038100065FE174A7A4493191A685B68FCF764FEE0
:10382000069A002AE1DA0122D207514009B0F0BD20
:10383000000010440000F07F182D4454FB21F93F94
:10384000FB21F9BF0000DC3F0000203E0000F33FF9
:103850000000E63F0000F03F008003400000F83F1A
:103860000000F0BFDA0200009C02000036020000F7
:1038700000020000F0B51FB4039B54425D001646E1
:1038800026439C46F40F6D084B004E4E5B082C43BC
:103890008E46B44205D847420743FC0F1C43B4424E
:1038A00004D96346FFF7A5FE05B0F0BD464E664459
:1038B000164309D0CC0F6646B61702273E40264372
:1038C00004461C4304D00BE0FFF7C6FE05B0F0BD74
:1038D000002EFBD0012EF9D0022E32D0032E34D090
:1038E00014462C430BD0374CA54216D1A3420AD123
:1038F000012189078D438B43194603950DE07046DE
:1039000000280FDB25E0314F7F44002E0ED0012E22
:1039100010D0022E15D0032E17D0A3421DD1704611
:10392000002816DA2A482B4905B0F0BD79683868B6
:1039300005B0F0BD01227968D2073868514005B062
:10394000F0BD2348244905B0F0BD2148234905B006
:10395000F0BD1F48224905B0F0BD5B1B1B153C2B79
:1039600002DD1B481E490FE06446002C05DA3C24AA
:10397000E34202DA0020014606E0039BFCF724FE46
:1039800049004908FFF768FE002EE4D0012E0BD055
:10399000144A154B022E0CD0FCF7A0FD0C4A0E4B1E
:1039A000FCF79CFD05B0F0BD0122D207514005B0E7
:1039B000F0BDFCF793FD064A074BFCF795FD05B0FB
:1039C000F0BD00000000F07F000010C0A401000066
:1039D000182D4454FB21F9BFFB210940FB2109C0EC
:1039E000FB21F93F075C143326A6A13C30B583B018
:1039F0000446FFF70DFE05460020009002460190A8
:103A000021466846FCF741FF2846FFF717FE01995B
:103A1000009803B030BD00004FBB610567ACDD3FCF
:103A2000182D4454FB21E93F9BF681D20B73EF3FE5
:103A3000182D4454FB21F93FE2652F227F2B7A3C5D
:103A4000075C143326A6813CBDCBF07A8807703C16
:103A5000075C143326A6913CC4EB98999999C9BF89
:103A6000711623FEC671BCBF6D9A74AFF2B0B3BFBE
:103A70009AFDDE522DDEADBF2F6C6A2C44B4A2BF7E
:103A80000D5555555555D53FFF8300922449C23FEA
:103A90006E204CC5CD45B73F513DD0A0660DB13F1E
:103AA000EB0D76244B7BA93F11DA22E33AAD903F30
:103AB0000000000000000000DDDDDDDDDCBBBBDD63
:103AC000DDDDDDDDDDDDDDDD9888888888888888BE
:103AD00077777777778888888555555666666666DE
:103AE00066666666666888888333333222222222BD
:103AF000222222222228888D0000000000000000DF
:103B0000CF020020D0020020CF020020D1020020EE
:103B1000CF020020CF020020CF020020D2020020DE
:103B2000403B000000000020680000001C36000040
:103B3000A83B000070000020780C00002C3600002C
:103B4000000000000000A040000000000000000095
:103B50000000000100000002010603020F181122FC
:103B600033445566424D4337374D30303100000005
:103B70000000000000000000000000000000000045
:103B80000000000000000000000000000000000035
:103B90000000000000000000008793030200000006
:083BA000040000000100000018
:04000005000000C136
:00000001FF
