:020000040000FA
:1000000050050020C1000000950E00000D08000002
:10001000FFFFFFFFFFFFFFFFFFFFFFFFFFFFFFFFF0
:10002000FFFFFFFFFFFFFFFFFFFFFFFFB70E000017
:10003000FFFFFFFFFFFFFFFF970E000033010000EF
:1000400035010000350100003501000035010000D8
:1000500035010000350100003501000035010000C8
:1000600035010000350100003501000035010000B8
:1000700035010000350100003501000035010000A8
:100080003501000035010000350100001D080000A9
:100090002D08000035010000350100003D10000072
:1000A000D9100000211000002B10000035010000C5
:1000B0003501000035010000350100003501000068
:1000C0001D4880471D4880471D4800471D4801695D
:1000D000002908D14169002905D18169002902D18F
:1000E000C169002909D01848C1680901090D002912
:1000F0000ED005290CD006290AD0BFF34F8F134824
:100100001349016013491248C860BFF34F8FFEE7DF
:100110000E4801680E48884200D070470E480F49CB
:1001200001600A480E4901607047FEE7FEE7FEE7FE
:10013000FEE7FEE7FEE70000CD0000001D0F000017
:100140006501000000030840800108400000002015
:100150000400FA0500ED00E0008108400100000005
:10016000000000000348854600F040F800480047C2
:10017000851300005005002030B50B4601460020D5
:100180002022012409E00D46D5409D4205D31D469D
:100190009540491B2546954040191546521E002D95
:1001A000F1DC30BD03460B439B0703D009E008C9CF
:1001B000121F08C0042AFAD203E00B780370401C17
:1001C000491C521EF9D27047D2B201E00270401CA5
:1001D000491EFBD270470022F6E710B513460A46C7
:1001E00004461946FFF7F0FF204610BD064C0125D6
:1001F000064E05E0E36807CC2B430C3C98471034CF
:10020000B442F7D3FFF7B2FF00140000201400003F
:10021000FCB501920A46C000134BC118002320E030
:10022000FF20984010421AD0009101249C400020E9
:100230000746064605460BE01146F940214205D027
:10024000019981400D430F2181400E43001D7F1C09
:10025000082FF1D100990868B0432843086008339B
:10026000091D082BDCDDFCBD2020024070B50124F7
:100270006004A10300252A46234600F03DFAD04839
:10028000006819210C4A00F011FC20462146224644
:10029000FFF7BEFF094E304621462A4600F06EFAAF
:1002A000304621462A4600F07BFA30462146224657
:1002B00000F06DFA70BDC046A086010000200B4022
:1002C000F0B58BB016460F46044609A86BA107226D
:1002D000FFF768FF04A81421FFF77DFF03253846C8
:1002E0002840C11E4A1E9141012303942C4202D092
:1002F000012900D0BFE00C2427403A460C3A0021E7
:100300000291891A51415940039A1207920F02D063
:10031000012900D0AFE0032819D1022000900193F9
:1003200000F056FF09A8057146713146D031C94326
:100330008171072100F024F9009800F049FF04A81A
:10034000062100F0EBF8019B002800D093E00C2F71
:1003500019D1022738461D4600F03AFF09A804715A
:100360004671C1787118D831C9438171072100F0F5
:1003700007F9384600F02CFF04A8062100F0CEF85B
:100380002B46002877D101230398184219D0022662
:1003900030461C4600F01CFF09A804710299417107
:1003A000C178CD31C9438171072100F0E9F83046A9
:1003B00000F00EFF04A8062100F0B0F82346002844
:1003C00059D10398800719D5022630461C4600F003
:1003D000FFFE09A8067102994171C178CE31C94367
:1003E0008171072100F0CCF8304600F0F1FE04A83E
:1003F000062100F093F8234600283CD103984007DB
:100400001AD5022630461C4600F0E2FE09A8042157
:10041000017102994171C178D031C94381710721BD
:1004200000F0AEF8304600F0D3FE04A8062100F03C
:1004300075F8234600281ED1039800071AD5022517
:1004400028461C4600F0C4FE09A808210171029943
:100450004171C178D431C9438171072100F090F80E
:10046000284600F0B5FE04A8062100F057F8234600
:10047000002800D1029B18460BB0F0BD5573040153
:1004800000000000F0B589B00C46064607AF042016
:10049000B8702048388002A814210190FFF79BFE15
:1004A0000225284600F094FEFD703E717420C04382
:1004B000113041B28C4200DC044661B264206429F0
:1004C00000DB04467C713019CE30C043B87107217F
:1004D000384600F055F8284600F07AFE06210198CB
:1004E00000F01CF8014601208B22002910D102A93E
:1004F000C97802290CD1711ECBB20020072B07D876
:10050000DA40D20704D049B28900034A51580C702E
:1005100009B0F0BD55730000E0130000F0B589B0DC
:100520000D46044602AE301D1821FFF754FE192077
:10053000029005940195069520480790002777764C
:100540001F4D2868314600F04FFB286800F074F911
:100550000028FAD0012000F03BFE0198411E3846E9
:1005600002E08018C0B27F1CFBB2E25C9942F8DC6A
:10057000FF214840801A411E884109B0F0BDC046A5
:1005800010B588B0002207920692059204921923B2
:100590000193029003910948069001A94A76084CFC
:1005A000206800F087FB206800F046F90028FAD0A8
:1005B0000A2000F00DFE08B010BDC04630750000E6
:1005C0001002002010B50368446800229C420AD043
:1005D000C268D25C0A70591C83680022994200D01C
:1005E0000A4602600122104610BD70B544680668D4
:1005F000631C85680022AB4202D1002E02D109E0C3
:10060000B34207D0C26811550021AB4200D0194651
:1006100041600122104670BD41680068091A00203F
:10062000401A48417047000070B50446124D6E698B
:1006300000F024F82060072131404A1E2049062A94
:100640000AD8C0467A441279520097440C03030535
:1006500005070A00084606E0002004E00120C00368
:1006600001E07D200002606029680522052900D391
:100670001146C840A06070BD20800840B0B50F4949
:100680000868CA694C6801235D0200202C4214D01E
:100690008869040F1C400A48E040002A0DDB8A6983
:1006A00089694B0D03211940D30D1F221A401023D5
:1006B000002A00D013465843C840B0BD008008400F
:1006C00000127A00BFB50446E0081C210140094829
:1006D0000D5801A8FFF7A8FF1F21214003208840E3
:1006E0002840C840811C2E2C00D001460398C840E9
:1006F00004B0B0BD38800840F0B5084C256885438B
:10070000A6688E43E7689743002B02D017430E4339
:1007100005432560A660E760F0BDC0462480084020
:10072000F8B504460420C543284600F0C5FB7D20EB
:10073000810110480068FFF71FFD00F0E9FB00266B
:10074000304600F0D7FB304600F0C2FB01273846A8
:1007500000F0BEFB05E03804074909680142FAD001
:10076000761CA642F7D1E81C00F0B2FB002000F096
:10077000AFFBF8BD0000002010E000E0002A02D02E
:1007800002680A4301E002688A4302607047002A57
:1007900002D042680A4301E042688A4342607047DF
:1007A00010B583688B43C4688C43012A03D0002AA8
:1007B00002D10B4300E00C438360C46010BDF8B568
:1007C0000E46412001020025012428462A462346E0
:1007D000FFF792FF2102062728463A46FFF718FD49
:1007E000A10228463A46FFF713FDA70738463146CF
:1007F00000F094FC38462946224600F0DDFC3846DD
:100800002146224600F0D8FCF8BD000002480168ED
:100810000029FCD07047C046B000002080B5012000
:1008200000F03CF8022000F039F880BD80B50020CF
:1008300000F034F880BD000070B544254543E44E17
:100840007019026B0421012A25D0426B0521012A6F
:1008500021D003462833826A0121002A1BD0C16BB4
:10086000002908DDC26A2C300021012A13D10021A1
:10087000016003210FE000221A60705901214C022F
:10088000214600F09FFA7059214600F024FA705971
:1008900000F03AFA0221C8B270BDC046FEB5024669
:1008A00044265643CA4FB859B919002800D1DFE091
:1008B000019202910C2100F08EFA0124A502284237
:1008C00007D00120029908630868294600F003FA5E
:1008D000FEBD2102C2050CD50120029C20632068C8
:1008E00000F0F9F9206800F081FA206800F07EFA43
:1008F000FEBDE102020506D50120029A5063106890
:1009000000F0E9F9FEBD6102644A90421ED0220463
:10091000904272D0624A904200D183E0614A904294
:1009200014D019221204904226D01D22130498429A
:1009300022D0520490424BD05B4A904248D0884229
:10094000029A00D094E00120D062D8E7029D286886
:1009500000F0C1F9286800F0D7F9286C002809D008
:10096000019800F049FC022800D181E028680021AC
:1009700000F0B3F9EC62FEBD029E344614343546F5
:10098000103530697169891E884203D130680021B1
:1009900000F096F9306800F029FAB1692A688854A5
:1009A000501C286021688842019C61D1306800F0A9
:1009B000ABF90020B062306C002859D0204600F01E
:1009C0001BFC022854D03068002100F086F9FEBDDF
:1009D000029B1A4608329968186800292BD0BC1966
:1009E00061681546E268515C00F003FA6068401CDB
:1009F00060602868401E2860FEBD029D2C461034B1
:100A000028696969891E884203D12868002100F09D
:100A100057F9286800F0EAF9A96922688854501C3F
:100A20002060FEBD02994869022821D3086801218F
:100A300000F046F9FEBD6104002200921C4600F061
:100A4000C1F92020205C032813D002281AD0009E70
:100A50000128029C019D0BD1206800F055F9A66287
:100A6000206C002804D0284600F0C6FB022812D1D2
:100A7000FEBD029C206800F047F9B8194562818BE1
:100A8000206804E0B8194562818B029800682A4604
:100A900000F0F2F9FEBD206896E7C04600023A0079
:100AA000040018000002180004003A00F0B589B0F4
:100AB00005460124E703E604C148444B022D23D038
:100AC000012D40D0002D5DD179480491BB490160D2
:100AD000414900200592024603932346FFF70CFE8E
:100AE000022610210297072730463A46FFF790FB6F
:100AF000202130463A46029FFFF78AFB0499059A67
:100B00002005039B18603DE0049188210592684A06
:100B1000505030490020024603932346FFF7ECFD76
:100B2000A10302240196072620463246FFF770FBF8
:100B3000204639463246FFF76BFB0499059A039825
:100B4000019B03601EE0049159494864214900203B
:100B50000592024603932346FFF7CEFD210301963B
:100B600002260297072730463A46FFF751FB6103FA
:100B700030463A46029FFFF74BFB0499059A0398CB
:100B8000019B036006AC002020706070A070218182
:100B90000792124800681249FFF7EEFAE070442607
:100BA0006E43434DA859214600F0BAF8A8590D49A3
:100BB0000124224600F006F9A859214600F098F8D1
:100BC000A859394600F018F909B0F0BD00E100E07D
:100BD000140200200140000002400000000000203C
:100BE00000127A000507010080B500220A7600F0A5
:100BF00001F880BDFEB50C46442545432C484619F6
:100C000000227260A068B0606068F06032612069A4
:100C10007061E068B0612068F061207E202170542E
:100C20000120B062F2623263029272637D20C100E1
:100C30006069FFF7A1FAF06337463C3731461C3153
:100C4000F06B002813DD0091607E30640195184838
:100C500040590125294600F040F83068E90400F0C9
:100C600058F8012804D138680128F6DAFEBDFEE7FD
:100C700030686F02394600F02EF8306839462A464F
:100C800000F0A0F8AA02207E401EC0B2022805D8BB
:100C9000306869042A4600F095F8029A01980449E0
:100CA0000818426200980188306800F0E5F8FEBD3F
:100CB0001402002080B501220A76FFF79BFF80BD59
:100CC00010B50268012413462343A243002900D132
:100CD0001346036010BDC160704710B50268082458
:100CE00013462343A243002900D11346036010BDDD
:100CF00010B50122540303681A462243A343002976
:100D000000D11A46026010BD016802220A43026047
:100D10007047C2680A400120002A00D1104670477F
:100D2000FEB50D4604462068852188432978014395
:100D300068780843A978014321602889A0600220CF
:100D400000261E498C4204D01D488442334604D1FB
:100D50000020C0B2FFF7B6FC0346032081032068E1
:100D600008400121CA039042029606D089038842B6
:100D700005D0002804D1062602E0092600E0082656
:100D8000092001935843696814274F433946FFF7F8
:100D9000F3F9801BED78401B002800DC02982061ED
:100DA0000B20019948433946FFF7E6F9801B401BA9
:100DB000002800DC02986061FEBDC046009004403F
:100DC00000800440002A02D042680A4301E04268E1
:100DD0008A434260704781B00022009200900098E0
:100DE000401800900098006801B070478069C0B258
:100DF0007047816170470000F0B5026943690324C0
:100E0000A403066826400127FD031A4CAE420CD00D
:100E1000BF03BE4211D0002E24D1661CB14215D1B1
:100E2000022A1FD39B1E921E1CE0BD03A94217D0AD
:100E3000002917D1DB1CD21C14E000290DD0A942D7
:100E400010D1002A0ED05B1E521E0BE0A94209D120
:100E5000022A07D3DB1ED21E04E09B1C921C01E079
:100E60005B1C521C02614361026822400A4302601B
:100E7000F0BDC046FF3F0000B0B50B460468022538
:100E80002C42FBD10124A4022143002A00D119469F
:100E9000C161B0BD70477047F8B5E12040020090D5
:100EA00001200002694688800020C88008810390E4
:100EB000FFF785FC8FBD704710B514490A680424FC
:100EC00013462343A243042800D013460B6010BDF1
:100ED00010B50E49002809D00A680124134623439F
:100EE000A243012800D013460B6010BD002088608B
:100EF00010BDC04610B505490A68022413462343B5
:100F0000A243002800D113460B6010BD10E000E0A2
:100F1000014908607047C04614E000E0F0B586B0B3
:100F20003B481021059101603A49C86A402203926A
:100F30001043C862384800682728FBD10327B8024D
:100F40000A6A82430A620122D0020B6803430B60E3
:100F5000486808263042FBD008680724A04338437D
:100F60000860086B20400328FBD12C4B1868A04375
:100F700010430093186000200290C86155020B686E
:100F8000AB430B600497FF43CB591002019003431E
:100F9000CB510B68B3430B60CB592B43CB5193021E
:100FA0000E681E430E604B6804263342FBD0CB6AAA
:100FB000039EB343CB620F23DB054B6113074E69DE
:100FC0001E434E61CB59019EB343CB510B682B435B
:100FD0000B60486802231842FBD0E043009D2B6859
:100FE0000340049E33432B60029BCB610B6803409C
:100FF00013430B60086B20400128FBD1286805993A
:1010000008432860100329680143296006B0F0BD39
:101010000C8108400480084008A1064000020840F6
:1010200080B5042000F000F980BD80B5012000F0FB
:10103000FBF8022000F0F8F880BD0000F8B50120B0
:1010400084072021204600F05AF801283DD12021B4
:10105000204600F046F8204600F0ABF8C2B21B492B
:10106000242A02D100240C8000E00C88611C174D5A
:101070002980174B18550A2A22D1187824281FD105
:1010800018794D281CD15879432819D18DB296244E
:10109000601B0027952D394600D801460D4E70196A
:1010A000FFF799F80A4930462A46FFF77BF80120F6
:1010B00030550648078006482146FFF78CF8F8BDF2
:1010C00088B2962801D396202880F8BD4C030020D2
:1010D00074010020B400002080B5032000F0A4F8C3
:1010E00080BD02690A40026170471022182301295D
:1010F00000D01A468168D1400F200840704702692D
:101100000A400120002A00D110467047C2680A40F8
:101110000120002A00D1104670470000B0B50D46EE
:101120000446606818490140E8880843A9880143DB
:1011300028890843E968014361601A210020134AA5
:10114000944211D0124A944210D0124A94420FD0C5
:10115000114A94420FD011498C420BD001218907CA
:101160008C420BD1182106E00A2104E01C2102E088
:10117000082100E01E21C8B2FFF7A4FA2968FEF793
:10118000FBFF6062B0BDC046FCE0FFFF00200440F2
:101190000010004000200040000004400010044007
:1011A000002A02D0C2680A4301E0C2688A43C260D2
:1011B0007047006880B2704710238B40002A02D02D
:1011C0004168194301E0416899434160704700005C
:1011D000E0B501907D20810106480068FEF7CCFF54
:1011E0000199414301910198411E01910028FAD1D2
:1011F0008CBDC04600000020B0B5442141430948E1
:10120000441825463C3520680121C904FFF781FDBB
:101210000021012803D1286802210028F3DCC8B28C
:10122000B0BDC04614020020FEB50446E600524D93
:10123000A859002800D19EE00221FFF760FF002896
:1012400000D0FEE70196A8598021FFF758FF00283B
:1012500033D0200149490D182846FFF7DDF9002851
:1012600007D045480199405802210022FFF798FF16
:1012700023E00095404D019FE8190079012814D121
:101280000620C543009F6D1C17D002AE384631467C
:10129000FFF798F9E000384908583178016038467E
:1012A000FFF7BAF90028EED007E002AE0098314609
:1012B000FFF788F9E859317801602F4D019FE8590F
:1012C000EA1911790029009232D04021FFF717FF67
:1012D00000282E4614D0F0594021FFF702FF2001CC
:1012E00027490D1806E0E00030580068C1B22846D2
:1012F000FFF77BF9F0590221FFF7F7FE0028F2D142
:10130000F0592021FFF7FBFE002820D020011C49C6
:101310000D1806E0E00030580068C1B22846FFF71B
:1013200064F9F0590221FFF7E0FE0028F2D10EE047
:101330002021FFF7E4FE00282E4608D020011049A6
:101340000818E10071580968C9B2FFF74EF9F05961
:101350000421FFF7DBFE00280DD0F0590124210203
:10136000FFF7CDFE002806D0F05904210022FFF738
:1013700017FF00984471FEBD2403002010000020D8
:1013800060000020B0B5FFF787FDFEF76FFF0F206C
:1013900000210122FEF794FF012446212046FFF799
:1013A00071F8064D2846FFF7BBF93B20C1432046A4
:1013B000FFF768F82846FFF7B3F9EDE78813000058
:1013C00002E008C8121F08C1002AFAD1704770470E
:1013D000002001E001C1121F002AFBD1704700006C
:1013E0000B0200200C0200200B0200200D02002046
:1013F0000B0200200B0200200B0200200E02002036
:10140000201400000000002004000000C0130000B1
:10141000241400001000002040050000D01300003C
:0414200000879303AB
:04000005000000C136
:00000001FF
