:020000040000FA
:10000000580A0020C10000006D120000750B0000AE
:10001000FFFFFFFFFFFFFFFFFFFFFFFFFFFFFFFFF0
:10002000FFFFFFFFFFFFFFFFFFFFFFFF8F1200003B
:10003000FFFFFFFFFFFFFFFF6F1200003301000013
:1000400035010000350100003501000035010000D8
:1000500035010000350100003501000035010000C8
:1000600035010000350100003501000035010000B8
:1000700035010000350100003501000035010000A8
:10008000350100006D02000035010000850B000005
:10009000950B00003501000035010000D916000065
:1000A00075170000951300009F1300003501000034
:1000B0003501000035010000350100003501000068
:1000C0001D4880471D4880471D4800471D4801695D
:1000D000002908D14169002905D18169002902D18F
:1000E000C169002909D01848C1680901090D002912
:1000F0000ED005290CD006290AD0BFF34F8F134824
:100100001349016013491248C860BFF34F8FFEE7DF
:100110000E4801680E48884200D070470E480F49CB
:1001200001600A480E4901607047FEE7FEE7FEE7FE
:10013000FEE7FEE7FEE70000CD00000091120000A0
:100140006501000000030840800108400000002015
:100150000400FA0500ED00E0008108400100000005
:10016000000000000348854600F040F800480047C2
:10017000ED1A0000580A002030B50B460146002059
:100180002022012409E00D46D5409D4205D31D469D
:100190009540491B2546954040191546521E002D95
:1001A000F1DC30BD03460B439B0703D009E008C9CF
:1001B000121F08C0042AFAD203E00B780370401C17
:1001C000491C521EF9D27047D2B201E00270401CA5
:1001D000491EFBD270470022F6E710B513460A46C7
:1001E00004461946FFF7F0FF204610BD064C0125D6
:1001F000064E05E0E36807CC2B430C3C98471034CF
:10020000B442F7D3FFF7B2FF101C0000301C00000F
:10021000FCB501920A46C000134BC118002320E030
:10022000FF20984010421AD0009101249C400020E9
:100230000746064605460BE01146F940214205D027
:10024000019981400D430F2181400E43001D7F1C09
:10025000082FF1D100990868B0432843086008339B
:10026000091D082BDCDDFCBD2020024010B5054C2B
:10027000204600F010F8012802D1204600F004F8D2
:1002800010BDC046006007404168012291434160B3
:10029000BFF34F8F7047416801200840704700004E
:1002A000F8B500200290019000904B21C901009107
:1002B00001210A0269468A80C88008810390674844
:1002C0000068642201F084F800F036F88FBDC04663
:1002D000BCB501A86E218170154901806C460021D2
:1002E000A17021800325294601F016FB1422204627
:1002F000294601F0DDFA00280AD1684640787F28B7
:1003000006D1684603210B4A01F0D2FA002806D034
:100310000F2001F0BBFA0124204602B0B0BD6846B0
:1003200044780F2001F0B2FA7D3C601E8441F3E76F
:1003300055190000AC0D0000F0B58BB009A8D6210E
:1003400001711D49099107AA0292D72111711B4918
:10035000079105AD0021A980039105910521009128
:1003600001F0DAFA0626142428463146224601F026
:100370009FFA0190287904900F27384601F086FAF9
:100380000298009901F0C8FA28463146224601F049
:100390008FFA0446069D384601F078FA0198002845
:1003A00001D0039804902802002C00D003980499EF
:1003B000084300B20BB0F0BD55800001558001012B
:1003C0007FB502A8D82101710C4902916C46002525
:1003D000A5800095052101F09FFA062114222046F0
:1003E00001F066FA0446019E0F2001F04FFA002C3E
:1003F00000D02E46F0B204B070BDC0465580020158
:10040000BCB501A86F2181700F4901806D460024A1
:10041000AC702C80032101F07FFA0521322228469E
:1004200001F046FA002807D1684640787F2803D1BA
:100430000F2001F02BFA03E00F2001F027FA01242E
:10044000204602B0B0BDC046551A0000014601204A
:10045000042902D8014801600020704704000020F0
:10046000BFB51249029101AD0024AC702C8002AAE4
:1004700010711F3050710621104601F04DFA032112
:100480001422284601F014FA002807D101A8407868
:100490007F2803D10F2001F0F9F903E00F2001F0CC
:1004A000F5F90124204604B0B0BDC04655C009018D
:1004B000BFB51249029101AD0024AC702C8002AA94
:1004C0001071213050710621104601F025FA0321E8
:1004D0001422284601F0ECF9002807D101A8407841
:1004E0007F2803D10F2001F0D1F903E00F2001F0A4
:1004F000CDF90124204604B0B0BDC04655C00B0163
:10050000BFB51249029101AD0024AC702C8002AA43
:1005100010711E3050710621104601F0FDF90321C3
:100520001422284601F0C4F9002807D101A8407818
:100530007F2803D10F2001F0A9F903E00F2001F07B
:10054000A5F90124204604B0B0BDC04655C008013D
:10055000BFB51249029101AD0024AC702C8002AAF3
:100560001071223050710621104601F0D5F9032197
:100570001422284601F09CF9002807D101A84078F0
:100580007F2803D10F2001F081F903E00F2001F053
:100590007DF90124204604B0B0BDC04655C00C0111
:1005A00070B501246004A10300252A46234600F00B
:1005B00085FAD448006819210C4A00F02BFC20462B
:1005C00021462246FFF724FE094E304621462A46A0
:1005D00000F088FA304621462A4600F095FA304667
:1005E0002146224600F087FA70BDC046A086010071
:1005F00000200B40F0B58BB016460F46044609A804
:100600006BA10722FFF7CEFD04A81421FFF7E3FD3D
:10061000032538462840C11E4A1E914101230394F8
:100620002C4202D0012900D0BFE00C2427403A46DA
:100630000C3A00210291891A51415940039A12073C
:10064000920F02D0012900D0AFE0032819D1022077
:100650000090019301F070F909A8057146713146C7
:10066000D031C9438171072100F02CF9009801F0C5
:1006700063F904A8062100F0EBF8019B002800D0E4
:1006800093E00C2F19D1022738461D4601F054F98A
:1006900009A804714671C1787118D831C9438171B4
:1006A000072100F00FF9384601F046F904A80621A9
:1006B00000F0CEF82B46002877D10123039818428A
:1006C00019D0022630461C4601F036F909A80471FB
:1006D00002994171C178CD31C9438171072100F080
:1006E000F1F8304601F028F904A8062100F0B0F82E
:1006F0002346002859D10398800719D50226304691
:100700001C4601F019F909A8067102994171C178D6
:10071000CE31C9438171072100F0D4F8304601F091
:100720000BF904A8062100F093F8234600283CD1D9
:10073000039840071AD5022630461C4601F0FCF803
:1007400009A80421017102994171C178D031C943CE
:100750008171072100F0B6F8304601F0EDF804A8E9
:10076000062100F075F8234600281ED103980007E3
:100770001AD5022528461C4601F0DEF809A80821F2
:10078000017102994171C178D431C9438171072146
:1007900000F098F8284601F0CFF804A8062100F0F0
:1007A00057F82346002800D1029B18460BB0F0BD35
:1007B0005573040100000000F0B589B00C460646F0
:1007C00007AF0420B8702048388002A81421019097
:1007D000FFF701FD0225284601F0AEF8FD703E71DD
:1007E0007420C043113041B28C4200DC044661B237
:1007F0006420642900DB04467C713019CE30C0438C
:10080000B8710721384600F05DF8284601F094F8E9
:100810000621019800F01CF8014601208B220029D6
:1008200010D102A9C97802290CD1711ECBB20020C7
:10083000072B07D8DA40D20704D049B28900034A0F
:1008400051580C7009B0F0BD55730000F01B00004A
:10085000F0B589B00D46044602AE301D1821FFF7F1
:10086000BAFC19200290059401950695244807903A
:1008700000277776234D2868314600F069FB286809
:1008800000F08EF90028FAD0012001F055F8019807
:10089000411E384602E08018C0B27F1CFBB2E25C09
:1008A0009942F8DCFF214840801A411E884109B076
:1008B000F0BDC04601460120022902D8114801605E
:1008C0000020704710B588B000220792069205926A
:1008D000049219230193029003910948069001A9FB
:1008E0004A76084C206800F099FB206800F058F91F
:1008F0000028FAD00A2001F01FF808B010BDC04649
:10090000307500001802002080B50220FFF79EFD20
:1009100001460120012910D0FFF7C2FC8020FFF71B
:1009200017FE0320FFF7C4FD0F20FFF799FD0220FB
:10093000FFF7E6FDFFF764FD002080BD0021416068
:1009400001607047016842688A4203D2511A806888
:1009500008187047501A7047002303604360826094
:10096000C160704710B50368446800229C420AD0F9
:10097000C268D25C0A70591C83680022994200D078
:100980000A4602600122104610BDF8B514460D4615
:100990000746002606E0A95D384600F008F8002862
:1009A00002D0761CA642F6D3304601B0F0BD70B539
:1009B00044680668631C85680022AB4202D1002EA1
:1009C00002D109E0B34207D0C26811550021AB4201
:1009D00000D0194641600122104670BD4168006890
:1009E000091A0020401A48417047000070B50446BB
:1009F000124D6E6900F024F82060072131404A1E34
:100A00002049062A0AD8C0467A44127952009744EF
:100A10000C03030505070A00084606E0002004E071
:100A20000120C00301E07D200002606029680522EA
:100A3000052900D31146C840A06070BD2080084041
:100A4000B0B50F490868CA694C6801235D020020EF
:100A50002C4214D08869040F1C400A48E040002A48
:100A60000DDB8A6989694B0D03211940D30D1F22C3
:100A70001A401023002A00D013465843C840B0BD86
:100A80000080084000127A00BFB50446E0081C212F
:100A9000014009480D5801A8FFF7A8FF1F21214078
:100AA000032088402840C840811C2E2C00D00146DD
:100AB0000398C84004B0B0BD38800840F0B5084C79
:100AC00025688543A6688E43E7689743002B02D0CC
:100AD00017430E4305432560A660E760F0BDC0469E
:100AE00024800840002A02D002680A4301E002681C
:100AF0008A4302607047002A02D042680A4301E03C
:100B000042688A434260704710B583688B43C4686B
:100B10008C43012A03D0002A02D10B4300E00C438E
:100B20008360C46010BDF8B50E4641200102002567
:100B3000012428462A462346FFF7C0FF2102062744
:100B400028463A46FFF764FBA10228463A46FFF7DB
:100B50005FFBA7073846314600F02EFE384629468F
:100B6000224600F088FE38462146224600F083FEE9
:100B7000F8BD0000024801680029FCD07047C0465B
:100B8000B000002080B5012000F03CF8022000F009
:100B900039F880BD80B5002000F034F880BD000039
:100BA00070B544254543E44E7019026B0421012AB7
:100BB00025D0426B0521012A21D003462833826AC1
:100BC0000121002A1BD0C16B002908DDC26A2C302C
:100BD0000021012A13D10021016003210FE000222E
:100BE0001A60705901214C02214600F09FFA705999
:100BF000214600F024FA705900F03AFA0221C8B2F6
:100C000070BDC046FEB5024644265643CA4FB85989
:100C1000B919002800D1DFE0019202910C2100F007
:100C20008EFA0124A502284207D001200299086308
:100C30000868294600F003FAFEBD2102C2050CD562
:100C40000120029C2063206800F0F9F9206800F080
:100C500081FA206800F07EFAFEBDE102020506D5A9
:100C60000120029A5063106800F0E9F9FEBD6102AC
:100C7000644A90421ED02204904272D0624A90424E
:100C800000D183E0614A904214D0192212049042AC
:100C900026D01D221304984222D0520490424BD0F9
:100CA0005B4A904248D08842029A00D094E00120EA
:100CB000D062D8E7029D286800F0C1F9286800F0EA
:100CC000D7F9286C002809D0019800F049FE0228C5
:100CD00000D181E02868002100F0B3F9EC62FEBD8C
:100CE000029E344614343546103530697169891EC8
:100CF000884203D13068002100F096F9306800F096
:100D000029FAB1692A688854501C286021688842F1
:100D1000019C61D1306800F0ABF90020B062306C0A
:100D2000002859D0204600F01BFE022854D030681D
:100D3000002100F086F9FEBD029B1A460832996830
:100D4000186800292BD0BC1961681546E268515C0F
:100D500000F003FA6068401C60602868401E28604C
:100D6000FEBD029D2C46103428696969891E88429F
:100D700003D12868002100F057F9286800F0EAF94B
:100D8000A96922688854501C2060FEBD02994869F8
:100D9000022821D30868012100F046F9FEBD610454
:100DA000002200921C4600F0C1F92020205C03289C
:100DB00013D002281AD0009E0128029C019D0BD15D
:100DC000206800F055F9A662206C002804D028465F
:100DD00000F0C6FD022812D1FEBD029C206800F082
:100DE00047F9B8194562818B206804E0B81945625B
:100DF000818B029800682A4600F0F2F9FEBD206857
:100E000096E7C04600023A000400180000021800ED
:100E100004003A00F0B589B005460124E703E60472
:100E2000C148444B022D23D0012D40D0002D5DD16F
:100E300079480491BB49016041490020059202466E
:100E400003932346FFF73AFE022610210297072755
:100E500030463A46FFF7DCF9202130463A46029FF9
:100E6000FFF7D6F90499059A2005039B18603DE029
:100E7000049188210592684A50503049002002466A
:100E800003932346FFF71AFEA103022401960726C7
:100E900020463246FFF7BCF9204639463246FFF776
:100EA000B7F90499059A0398019B03601EE0049129
:100EB000594948642149002005920246039323467C
:100EC000FFF7FCFD21030196022602970727304613
:100ED0003A46FFF79DF9610330463A46029FFFF715
:100EE00097F90499059A0398019B036006AC0020CA
:100EF00020706070A070218107921248006812492A
:100F0000FFF73AF9E07044266E43434DA859214655
:100F100000F0BAF8A8590D490124224600F006F95C
:100F2000A859214600F098F8A859394600F018F958
:100F300009B0F0BD00E100E01C020020014000000B
:100F4000024000000000002000127A0005070100A6
:100F500080B500220A7600F001F880BDFEB50C468F
:100F6000442545432C48461900227260A068B060B1
:100F70006068F060326120697061E068B06120688B
:100F8000F061207E202170540120B062F262326351
:100F9000029272637D20C1006069FFF7EDF8F06393
:100FA00037463C3731461C31F06B002813DD009189
:100FB000607E30640195184840590125294600F0AB
:100FC00040F83068E90400F058F8012804D1386886
:100FD0000128F6DAFEBDFEE730686F02394600F000
:100FE0002EF8306839462A4600F0A0F8AA02207E82
:100FF000401EC0B2022805D8306869042A4600F0B5
:1010000095F8029A019804490818426200980188EC
:10101000306800F0E5F8FEBD1C02002080B501221A
:101020000A76FFF79BFF80BD10B5026801241346C6
:101030002343A243002900D11346036010BDC160C1
:10104000704710B50268082413462343A2430029C1
:1010500000D11346036010BD10B50122540303688C
:101060001A462243A343002900D11A46026010BD4C
:10107000016802220A4302607047C2680A400120E8
:10108000002A00D110467047FEB50D460446206880
:10109000852188432978014368780843A97801436A
:1010A00021602889A060022000261E498C4204D0BD
:1010B0001D488442334604D10020C0B2FFF7E4FC4F
:1010C000034603208103206808400121CA0390429F
:1010D000029606D08903884205D0002804D106264E
:1010E00002E0092600E008260920019358436968B8
:1010F00014274F433946FFF73FF8801BED78401B1C
:10110000002800DC029820610B20019948433946F1
:10111000FFF732F8801B401B002800DC029860615A
:10112000FEBDC0460090044000800440002A02D06A
:1011300042680A4301E042688A434260704781B0D6
:1011400000220092009000984018009000980068DB
:1011500001B070478069C0B270478161704700007C
:10116000F0B5026943690324A403066826400127F9
:10117000FD031A4CAE420CD0BF03BE4211D0002E6C
:1011800024D1661CB14215D1022A1FD39B1E921E88
:101190001CE0BD03A94217D0002917D1DB1CD21CCB
:1011A00014E000290DD0A94210D1002A0ED05B1EF8
:1011B000521E0BE0A94209D1022A07D3DB1ED21E20
:1011C00004E09B1C921C01E05B1C521C0261436109
:1011D000026822400A430260F0BDC046FF3F0000A3
:1011E000B0B50B46046802252C42FBD10124A402B1
:1011F0002143002A00D11946C161B0BDF8B50124D0
:101200006004A10300252A462346FFF757FC202649
:10121000204631462246FEF7FBFF084F384631464E
:101220002A46FFF771FC384631462A46FFF75AFC3A
:10123000384631462246FFF75EFCF8BD00200B40E1
:1012400010B500242046FFF735FB0146FF20012999
:1012500007D0FFF7A5F90F2021462246FFF7CAF96C
:10126000204610BD80B5FFF7A7FA80BD70477047D4
:10127000F8B5E12040020090012000026946888014
:101280000020C88008810390FFF74DFC8FBD704798
:10129000F0B586B03B481021059101603A49C86A13
:1012A000402203921043C862384800682728FBD1C7
:1012B0000327B8020A6A82430A620122D0020B683D
:1012C00003430B60486808263042FBD008680724B7
:1012D000A04338430860086B20400328FBD12C4B07
:1012E0001868A04310430093186000200290C86162
:1012F00055020B68AB430B600497FF43CB591002B8
:1013000001900343CB510B68B3430B60CB592B4384
:10131000CB5193020E681E430E604B680426334285
:10132000FBD0CB6A039EB343CB620F23DB054B613B
:1013300013074E691E434E61CB59019EB343CB51F7
:101340000B682B430B60486802231842FBD0E04334
:10135000009D2B680340049E33432B60029BCB61AE
:101360000B68034013430B60086B20400128FBD13E
:1013700028680599084328601003296801432960FB
:1013800006B0F0BD0C8108400480084008A106406A
:101390000002084080B5042000F0FAFA80BD80B554
:1013A000012000F0F5FA022000F0F2FA80BD000002
:1013B00080B50001B2490818FFF7C0FA80BDC046E9
:1013C00080B50001AE490818FFF7BCFA80BDC046E1
:1013D000F0B587B0154601263302B20603929E4F40
:1013E0009E4C9F4A042800D91FE104920691059063
:1013F0007844007940008744024171A2E700B107B8
:101400000191B4480160B248964980242246039372
:10141000FFF7A2FA9A4894492246FFF79DFA300452
:1014200041210902002422463346FFF747FB02957B
:10143000B502384629462246FFF766FB06272046B6
:1014400003993A46FEF7E4FE204629463A46FEF75F
:10145000DFFEF005049908603022019C20463146E9
:1014600000F000FA2046029900F0F4F920460399B2
:10147000324600F0E3F997480671D4E09548EE490A
:101480008160934810307749803180252A46FFF7E4
:1014900063FA7B481030744980312A46FFF75CFAC2
:1014A000B0040921C90200252A463346FFF706FB8E
:1014B0007703204639462A46FFF726FB31030224EC
:1014C000062520462A46FEF7A3FE204639462A4630
:1014D000FEF79EFE049803990160A4E07D48D2497E
:1014E00001616048C1187A48203080252A461F468D
:1014F000FFF732FA5C48C119614820302A46FFF7ED
:101500002BFAB0040321490300252A463346FFF78E
:10151000D5FAF703204639462A46FFF7F5FAB10314
:101520000224062520462A46FEF772FE204639464A
:101530002A46FEF76DFE04980399016073E0654842
:10154000BC490191816103200295C50145484119BB
:101550005F483030802422460393FFF7FDF942486C
:101560004119474830302246FFF7F6F9300421216F
:101570004902002422463346FFF7A0FA20253846C8
:1015800029462246FFF7C0FA1021062720463A4690
:10159000FEF73EFE204629463A46FEF739FE300663
:1015A000049908603022019C2046314600F05AF927
:1015B0002046029900F04EF920460399324600F089
:1015C0003DF9444806772EE0424899490162750288
:1015D000244841193E48403080242246FFF7BCF998
:1015E00021484119264840302246FFF7B5F97004DA
:1015F00005210903002422463346FFF75FFA1B4802
:10160000082529462246FFF77FFA042106243046A2
:101610002246FEF7FDFD304629462246FEF7F8FD3C
:1016200070060499086006990598C500294E7059FE
:1016300000F0C2F8705900210124224600F01BF985
:1016400070592146224600F016F9705909212246A8
:1016500000F0F4F807B0F0BD00000B4000400B4074
:1016600000E100E0D40500205403002000200B40DE
:1016700080B50001024A1018FFF774F980BDC0461A
:1016800060000020F8B5154600910446200110497D
:101690000F18B868461E3846FFF754F9301A00266E
:1016A000A84212D3384600992A46FFF76EF905463C
:1016B000002D0AD0E00007490A180023537108588A
:1016C0000621012200F0BAF82E46304601B0F0BDE6
:1016D000100000202C030020F8B5012084072021F1
:1016E000204600F05AF801283DD12021204600F084
:1016F00046F8204600F0ABF8C2B21B49242A02D1BA
:1017000000240C8000E00C88611C174D2980174BC9
:1017100018550A2A22D1187824281FD118794D2863
:101720001CD15879432819D18DB29624601B00270B
:10173000952D394600D801460D4E7019FEF74BFD28
:101740000A4930462A46FEF72DFD0120305506484D
:10175000078006482146FEF73EFDF8BD88B2962870
:1017600001D396202880F8BD56080020740100207F
:10177000B400002080B5032000F00AF980BD0269A2
:101780000A400261704710221823012900D01A462E
:101790008168D1400F200840704702690A4001204B
:1017A000002A00D110467047C2680A400120002A72
:1017B00000D1104670470000B0B50D460446606881
:1017C00018490140E8880843A9880143288908434B
:1017D000E968014361601A210020134A944211D044
:1017E000124A944210D0124A94420FD0114A9442A5
:1017F0000FD011498C420BD0012189078C420BD1AB
:10180000182106E00A2104E01C2102E0082100E082
:101810001E21C8B2FFF738F92968FEF7ADFC6062F7
:10182000B0BDC046FCE0FFFF0020044000100040B7
:10183000002000400000044000100440002A02D0B4
:10184000C2680A4301E0C2688A43C2607047006808
:1018500080B270474269FF239A430A4380211143B3
:101860004161704749008A4030238B408168994329
:1018700011438160704710238B40002A02D04168D9
:10188000194301E04168994341607047E0B5019018
:101890007D20810131480068FEF76EFC01994143CB
:1018A00001910198411E01910028FAD18CBDC046DA
:1018B000FEB51646044600271E4D0294019115E020
:1018C000002407E0E1B20220B14221D80120FFF755
:1018D000DDFF641C2868FFF773FD0028F2D0029C2E
:1018E000E1192868FFF7C4FE7F1C01998F42E7D3F6
:1018F000481E00210A4603E0E35CD2B2D218491C1C
:10190000CBB29842F8DC205CD1B2401A411E88412B
:10191000C0B203B0F0BDC04670B50C460546054EDA
:101920003068FFF745FD306829462246FFF7AAFEDA
:1019300070BDC04604000020E0B501907D2081010B
:1019400006480068FEF718FC01994143019101988F
:10195000411E01910028FAD18CBDC0460000002034
:10196000B0B5442141430948441825463C35206818
:101970000121C904FFF781FB0021012803D1286858
:1019800002210028F3DCC8B2B0BDC0461C02002012
:10199000FEB50446E600524DA859002800D19EE04D
:1019A0000221FFF7FAFE002800D0FEE70196A859B1
:1019B0008021FFF7F2FE002833D0200149490D189D
:1019C0002846FFF70BF8002807D0454801994058F2
:1019D00002210022FFF732FF23E00095404D019FD6
:1019E000E8190079012814D10620C543009F6D1C19
:1019F00017D002AE38463146FEF7B4FFE000384952
:101A00000858317801603846FEF7E8FF0028EED02C
:101A100007E002AE00983146FEF7A4FFE85931789E
:101A200001602F4D019FE859EA19117900290092B0
:101A300032D04021FFF7B1FE00282E4614D0F059D5
:101A40004021FFF79CFE200127490D1806E0E00029
:101A500030580068C1B22846FEF7A9FFF0590221AC
:101A6000FFF791FE0028F2D1F0592021FFF795FEF3
:101A7000002820D020011C490D1806E0E000305855
:101A80000068C1B22846FEF792FFF0590221FFF725
:101A90007AFE0028F2D10EE02021FFF77EFE00281A
:101AA0002E4608D0200110490818E1007158096835
:101AB000C9B2FEF77CFFF0590421FFF775FE00283C
:101AC0000DD0F05901242102FFF767FE002806D04F
:101AD000F05904210022FFF7B1FE00984471FEBDC9
:101AE0002C0300201000002060000020F0B585B01D
:101AF000FFF7BEFBFEF708FF0028FBD1FFF7A0FBB6
:101B0000FFF77CFBFEF7E4FB0028FBD12C4D2E4FAA
:101B1000FEF756FC2860FEF753FC012841D1294806
:101B200001460878401C087001200390502421468B
:101B30000094B8474F20C543022004902946B84777
:101B4000042630462146B847082002902946B84767
:101B50007D20C00001901D4988473C240398214600
:101B6000B84704982146B8472846143044B2304656
:101B70002146B84702982146B8470198134988473B
:101B800003982946B8470498009C2146B847304638
:101B900029460B4DB84702982146B84701980B4992
:101BA0008847012000242146B84702202146B84733
:101BB00004202146B84708202146B847A8E7C04678
:101BC0000C020020540800206512000039190000A2
:101BD00002E008C8121F08C1002AFAD170477047F6
:101BE000002001E001C1121F002AFBD17047000054
:101BF0001102002012020020110200201302002016
:101C00001102002011020020110200201402002005
:101C1000301C00000000002008000000D01B000065
:101C2000381C000010000020480A0000E01B0000E3
:081C300000879303010000008E
:04000005000000C136
:00000001FF
